{
  "_format": "hh-sol-artifact-1",
  "contractName": "RedTickets",
  "sourceName": "contracts/RedTickets.sol",
  "abi": [
    {
      "inputs": [
        {
          "internalType": "address",
          "name": "initialOwner",
          "type": "address"
        }
      ],
      "stateMutability": "nonpayable",
      "type": "constructor"
    },
    {
      "inputs": [
        {
          "internalType": "address",
          "name": "sender",
          "type": "address"
        },
        {
          "internalType": "uint256",
          "name": "tokenId",
          "type": "uint256"
        },
        {
          "internalType": "address",
          "name": "owner",
          "type": "address"
        }
      ],
      "name": "ERC721IncorrectOwner",
      "type": "error"
    },
    {
      "inputs": [
        {
          "internalType": "address",
          "name": "operator",
          "type": "address"
        },
        {
          "internalType": "uint256",
          "name": "tokenId",
          "type": "uint256"
        }
      ],
      "name": "ERC721InsufficientApproval",
      "type": "error"
    },
    {
      "inputs": [
        {
          "internalType": "address",
          "name": "approver",
          "type": "address"
        }
      ],
      "name": "ERC721InvalidApprover",
      "type": "error"
    },
    {
      "inputs": [
        {
          "internalType": "address",
          "name": "operator",
          "type": "address"
        }
      ],
      "name": "ERC721InvalidOperator",
      "type": "error"
    },
    {
      "inputs": [
        {
          "internalType": "address",
          "name": "owner",
          "type": "address"
        }
      ],
      "name": "ERC721InvalidOwner",
      "type": "error"
    },
    {
      "inputs": [
        {
          "internalType": "address",
          "name": "receiver",
          "type": "address"
        }
      ],
      "name": "ERC721InvalidReceiver",
      "type": "error"
    },
    {
      "inputs": [
        {
          "internalType": "address",
          "name": "sender",
          "type": "address"
        }
      ],
      "name": "ERC721InvalidSender",
      "type": "error"
    },
    {
      "inputs": [
        {
          "internalType": "uint256",
          "name": "tokenId",
          "type": "uint256"
        }
      ],
      "name": "ERC721NonexistentToken",
      "type": "error"
    },
    {
      "inputs": [
        {
          "internalType": "address",
          "name": "owner",
          "type": "address"
        }
      ],
      "name": "OwnableInvalidOwner",
      "type": "error"
    },
    {
      "inputs": [
        {
          "internalType": "address",
          "name": "account",
          "type": "address"
        }
      ],
      "name": "OwnableUnauthorizedAccount",
      "type": "error"
    },
    {
      "anonymous": false,
      "inputs": [
        {
          "indexed": true,
          "internalType": "address",
          "name": "owner",
          "type": "address"
        },
        {
          "indexed": true,
          "internalType": "address",
          "name": "approved",
          "type": "address"
        },
        {
          "indexed": true,
          "internalType": "uint256",
          "name": "tokenId",
          "type": "uint256"
        }
      ],
      "name": "Approval",
      "type": "event"
    },
    {
      "anonymous": false,
      "inputs": [
        {
          "indexed": true,
          "internalType": "address",
          "name": "owner",
          "type": "address"
        },
        {
          "indexed": true,
          "internalType": "address",
          "name": "operator",
          "type": "address"
        },
        {
          "indexed": false,
          "internalType": "bool",
          "name": "approved",
          "type": "bool"
        }
      ],
      "name": "ApprovalForAll",
      "type": "event"
    },
    {
      "anonymous": false,
      "inputs": [
        {
          "indexed": true,
          "internalType": "address",
          "name": "previousOwner",
          "type": "address"
        },
        {
          "indexed": true,
          "internalType": "address",
          "name": "newOwner",
          "type": "address"
        }
      ],
      "name": "OwnershipTransferred",
      "type": "event"
    },
    {
      "anonymous": false,
      "inputs": [
        {
          "indexed": true,
          "internalType": "address",
          "name": "from",
          "type": "address"
        },
        {
          "indexed": true,
          "internalType": "address",
          "name": "to",
          "type": "address"
        },
        {
          "indexed": true,
          "internalType": "uint256",
          "name": "tokenId",
          "type": "uint256"
        }
      ],
      "name": "Transfer",
      "type": "event"
    },
    {
      "inputs": [],
      "name": "MAX_TICKETS",
      "outputs": [
        {
          "internalType": "uint256",
          "name": "",
          "type": "uint256"
        }
      ],
      "stateMutability": "view",
      "type": "function"
    },
    {
      "inputs": [
        {
          "internalType": "address",
          "name": "to",
          "type": "address"
        },
        {
          "internalType": "uint256",
          "name": "tokenId",
          "type": "uint256"
        }
      ],
      "name": "approve",
      "outputs": [],
      "stateMutability": "nonpayable",
      "type": "function"
    },
    {
      "inputs": [
        {
          "internalType": "address",
          "name": "owner",
          "type": "address"
        }
      ],
      "name": "balanceOf",
      "outputs": [
        {
          "internalType": "uint256",
          "name": "",
          "type": "uint256"
        }
      ],
      "stateMutability": "view",
      "type": "function"
    },
    {
      "inputs": [
        {
          "internalType": "uint256",
          "name": "tokenId",
          "type": "uint256"
        }
      ],
      "name": "getApproved",
      "outputs": [
        {
          "internalType": "address",
          "name": "",
          "type": "address"
        }
      ],
      "stateMutability": "view",
      "type": "function"
    },
    {
      "inputs": [
        {
          "internalType": "uint256",
          "name": "_id",
          "type": "uint256"
        }
      ],
      "name": "getMatch",
      "outputs": [
        {
          "components": [
            {
              "internalType": "uint256",
              "name": "id",
              "type": "uint256"
            },
            {
              "internalType": "string",
              "name": "name",
              "type": "string"
            },
            {
              "internalType": "uint256",
              "name": "cost",
              "type": "uint256"
            },
            {
              "internalType": "uint256",
              "name": "tickets",
              "type": "uint256"
            },
            {
              "internalType": "uint256",
              "name": "maxTickets",
              "type": "uint256"
            },
            {
              "internalType": "string",
              "name": "date",
              "type": "string"
            },
            {
              "internalType": "string",
              "name": "time",
              "type": "string"
            },
            {
              "internalType": "string",
              "name": "location",
              "type": "string"
            }
          ],
          "internalType": "struct RedTickets.Match",
          "name": "",
          "type": "tuple"
        }
      ],
      "stateMutability": "view",
      "type": "function"
    },
    {
      "inputs": [
        {
          "internalType": "uint256",
          "name": "_id",
          "type": "uint256"
        }
      ],
      "name": "getSeatsTaken",
      "outputs": [
        {
          "internalType": "uint256[]",
          "name": "",
          "type": "uint256[]"
        }
      ],
      "stateMutability": "view",
      "type": "function"
    },
    {
      "inputs": [
        {
          "internalType": "uint256",
          "name": "",
          "type": "uint256"
        },
        {
          "internalType": "address",
          "name": "",
          "type": "address"
        }
      ],
      "name": "hasBought",
      "outputs": [
        {
          "internalType": "bool",
          "name": "",
          "type": "bool"
        }
      ],
      "stateMutability": "view",
      "type": "function"
    },
    {
      "inputs": [
        {
          "internalType": "address",
          "name": "owner",
          "type": "address"
        },
        {
          "internalType": "address",
          "name": "operator",
          "type": "address"
        }
      ],
      "name": "isApprovedForAll",
      "outputs": [
        {
          "internalType": "bool",
          "name": "",
          "type": "bool"
        }
      ],
      "stateMutability": "view",
      "type": "function"
    },
    {
      "inputs": [
        {
          "internalType": "string",
          "name": "_name",
          "type": "string"
        },
        {
          "internalType": "uint256",
          "name": "_cost",
          "type": "uint256"
        },
        {
          "internalType": "uint256",
          "name": "_maxTickets",
          "type": "uint256"
        },
        {
          "internalType": "string",
          "name": "_date",
          "type": "string"
        },
        {
          "internalType": "string",
          "name": "_time",
          "type": "string"
        },
        {
          "internalType": "string",
          "name": "_location",
          "type": "string"
        }
      ],
      "name": "listMatch",
      "outputs": [],
      "stateMutability": "nonpayable",
      "type": "function"
    },
    {
      "inputs": [
        {
          "internalType": "uint256",
          "name": "",
          "type": "uint256"
        }
      ],
      "name": "matches",
      "outputs": [
        {
          "internalType": "uint256",
          "name": "id",
          "type": "uint256"
        },
        {
          "internalType": "string",
          "name": "name",
          "type": "string"
        },
        {
          "internalType": "uint256",
          "name": "cost",
          "type": "uint256"
        },
        {
          "internalType": "uint256",
          "name": "tickets",
          "type": "uint256"
        },
        {
          "internalType": "uint256",
          "name": "maxTickets",
          "type": "uint256"
        },
        {
          "internalType": "string",
          "name": "date",
          "type": "string"
        },
        {
          "internalType": "string",
          "name": "time",
          "type": "string"
        },
        {
          "internalType": "string",
          "name": "location",
          "type": "string"
        }
      ],
      "stateMutability": "view",
      "type": "function"
    },
    {
      "inputs": [
        {
          "internalType": "uint256",
          "name": "_id",
          "type": "uint256"
        },
        {
          "internalType": "uint256",
          "name": "_seat",
          "type": "uint256"
        }
      ],
      "name": "mintTicket",
      "outputs": [],
      "stateMutability": "payable",
      "type": "function"
    },
    {
      "inputs": [],
      "name": "name",
      "outputs": [
        {
          "internalType": "string",
          "name": "",
          "type": "string"
        }
      ],
      "stateMutability": "view",
      "type": "function"
    },
    {
      "inputs": [],
      "name": "owner",
      "outputs": [
        {
          "internalType": "address",
          "name": "",
          "type": "address"
        }
      ],
      "stateMutability": "view",
      "type": "function"
    },
    {
      "inputs": [
        {
          "internalType": "uint256",
          "name": "tokenId",
          "type": "uint256"
        }
      ],
      "name": "ownerOf",
      "outputs": [
        {
          "internalType": "address",
          "name": "",
          "type": "address"
        }
      ],
      "stateMutability": "view",
      "type": "function"
    },
    {
      "inputs": [],
      "name": "renounceOwnership",
      "outputs": [],
      "stateMutability": "nonpayable",
      "type": "function"
    },
    {
      "inputs": [
        {
          "internalType": "address",
          "name": "from",
          "type": "address"
        },
        {
          "internalType": "address",
          "name": "to",
          "type": "address"
        },
        {
          "internalType": "uint256",
          "name": "tokenId",
          "type": "uint256"
        }
      ],
      "name": "safeTransferFrom",
      "outputs": [],
      "stateMutability": "nonpayable",
      "type": "function"
    },
    {
      "inputs": [
        {
          "internalType": "address",
          "name": "from",
          "type": "address"
        },
        {
          "internalType": "address",
          "name": "to",
          "type": "address"
        },
        {
          "internalType": "uint256",
          "name": "tokenId",
          "type": "uint256"
        },
        {
          "internalType": "bytes",
          "name": "data",
          "type": "bytes"
        }
      ],
      "name": "safeTransferFrom",
      "outputs": [],
      "stateMutability": "nonpayable",
      "type": "function"
    },
    {
      "inputs": [
        {
          "internalType": "uint256",
          "name": "",
          "type": "uint256"
        },
        {
          "internalType": "uint256",
          "name": "",
          "type": "uint256"
        }
      ],
      "name": "seatTaken",
      "outputs": [
        {
          "internalType": "address",
          "name": "",
          "type": "address"
        }
      ],
      "stateMutability": "view",
      "type": "function"
    },
    {
      "inputs": [
        {
          "internalType": "uint256",
          "name": "",
          "type": "uint256"
        },
        {
          "internalType": "uint256",
          "name": "",
          "type": "uint256"
        }
      ],
      "name": "seatsTaken",
      "outputs": [
        {
          "internalType": "uint256",
          "name": "",
          "type": "uint256"
        }
      ],
      "stateMutability": "view",
      "type": "function"
    },
    {
      "inputs": [
        {
          "internalType": "address",
          "name": "operator",
          "type": "address"
        },
        {
          "internalType": "bool",
          "name": "approved",
          "type": "bool"
        }
      ],
      "name": "setApprovalForAll",
      "outputs": [],
      "stateMutability": "nonpayable",
      "type": "function"
    },
    {
      "inputs": [
        {
          "internalType": "uint256",
          "name": "_id",
          "type": "uint256"
        },
        {
          "internalType": "uint256",
          "name": "_price",
          "type": "uint256"
        }
      ],
      "name": "setTicketPrice",
      "outputs": [],
      "stateMutability": "nonpayable",
      "type": "function"
    },
    {
      "inputs": [
        {
          "internalType": "uint256",
          "name": "_id",
          "type": "uint256"
        },
        {
          "internalType": "uint256",
          "name": "_tickets",
          "type": "uint256"
        }
      ],
      "name": "setTicketsForSale",
      "outputs": [],
      "stateMutability": "nonpayable",
      "type": "function"
    },
    {
      "inputs": [
        {
          "internalType": "bytes4",
          "name": "interfaceId",
          "type": "bytes4"
        }
      ],
      "name": "supportsInterface",
      "outputs": [
        {
          "internalType": "bool",
          "name": "",
          "type": "bool"
        }
      ],
      "stateMutability": "view",
      "type": "function"
    },
    {
      "inputs": [],
      "name": "symbol",
      "outputs": [
        {
          "internalType": "string",
          "name": "",
          "type": "string"
        }
      ],
      "stateMutability": "view",
      "type": "function"
    },
    {
      "inputs": [
        {
          "internalType": "uint256",
          "name": "tokenId",
          "type": "uint256"
        }
      ],
      "name": "tokenURI",
      "outputs": [
        {
          "internalType": "string",
          "name": "",
          "type": "string"
        }
      ],
      "stateMutability": "view",
      "type": "function"
    },
    {
      "inputs": [],
      "name": "totalMatches",
      "outputs": [
        {
          "internalType": "uint256",
          "name": "",
          "type": "uint256"
        }
      ],
      "stateMutability": "view",
      "type": "function"
    },
    {
      "inputs": [],
      "name": "totalSupply",
      "outputs": [
        {
          "internalType": "uint256",
          "name": "",
          "type": "uint256"
        }
      ],
      "stateMutability": "view",
      "type": "function"
    },
    {
      "inputs": [
        {
          "internalType": "address",
          "name": "from",
          "type": "address"
        },
        {
          "internalType": "address",
          "name": "to",
          "type": "address"
        },
        {
          "internalType": "uint256",
          "name": "tokenId",
          "type": "uint256"
        }
      ],
      "name": "transferFrom",
      "outputs": [],
      "stateMutability": "nonpayable",
      "type": "function"
    },
    {
      "inputs": [
        {
          "internalType": "address",
          "name": "newOwner",
          "type": "address"
        }
      ],
      "name": "transferOwnership",
      "outputs": [],
      "stateMutability": "nonpayable",
      "type": "function"
    },
    {
      "inputs": [],
      "name": "withdraw",
      "outputs": [],
      "stateMutability": "nonpayable",
      "type": "function"
    }
  ],
  "bytecode": "0x60806040523480156200001157600080fd5b506040516200424238038062004242833981810160405281019062000037919062000288565b806040518060400160405280600a81526020017f5265645469636b657473000000000000000000000000000000000000000000008152506040518060400160405280600281526020017f52540000000000000000000000000000000000000000000000000000000000008152508160009081620000b5919062000534565b508060019081620000c7919062000534565b505050600073ffffffffffffffffffffffffffffffffffffffff168173ffffffffffffffffffffffffffffffffffffffff16036200013f5760006040517f1e4fbdf70000000000000000000000000000000000000000000000000000000081526004016200013691906200062c565b60405180910390fd5b62000150816200015860201b60201c565b505062000649565b6000600660009054906101000a900473ffffffffffffffffffffffffffffffffffffffff16905081600660006101000a81548173ffffffffffffffffffffffffffffffffffffffff021916908373ffffffffffffffffffffffffffffffffffffffff1602179055508173ffffffffffffffffffffffffffffffffffffffff168173ffffffffffffffffffffffffffffffffffffffff167f8be0079c531659141344cd1fd0a4f28419497f9722a3daafe3b4186f6b6457e060405160405180910390a35050565b600080fd5b600073ffffffffffffffffffffffffffffffffffffffff82169050919050565b6000620002508262000223565b9050919050565b620002628162000243565b81146200026e57600080fd5b50565b600081519050620002828162000257565b92915050565b600060208284031215620002a157620002a06200021e565b5b6000620002b18482850162000271565b91505092915050565b600081519050919050565b7f4e487b7100000000000000000000000000000000000000000000000000000000600052604160045260246000fd5b7f4e487b7100000000000000000000000000000000000000000000000000000000600052602260045260246000fd5b600060028204905060018216806200033c57607f821691505b602082108103620003525762000351620002f4565b5b50919050565b60008190508160005260206000209050919050565b60006020601f8301049050919050565b600082821b905092915050565b600060088302620003bc7fffffffffffffffffffffffffffffffffffffffffffffffffffffffffffffffff826200037d565b620003c886836200037d565b95508019841693508086168417925050509392505050565b6000819050919050565b6000819050919050565b6000620004156200040f6200040984620003e0565b620003ea565b620003e0565b9050919050565b6000819050919050565b6200043183620003f4565b6200044962000440826200041c565b8484546200038a565b825550505050565b600090565b6200046062000451565b6200046d81848462000426565b505050565b5b8181101562000495576200048960008262000456565b60018101905062000473565b5050565b601f821115620004e457620004ae8162000358565b620004b9846200036d565b81016020851015620004c9578190505b620004e1620004d8856200036d565b83018262000472565b50505b505050565b600082821c905092915050565b60006200050960001984600802620004e9565b1980831691505092915050565b6000620005248383620004f6565b9150826002028217905092915050565b6200053f82620002ba565b67ffffffffffffffff8111156200055b576200055a620002c5565b5b62000567825462000323565b6200057482828562000499565b600060209050601f831160018114620005ac576000841562000597578287015190505b620005a3858262000516565b86555062000613565b601f198416620005bc8662000358565b60005b82811015620005e657848901518255600182019150602085019450602081019050620005bf565b8683101562000606578489015162000602601f891682620004f6565b8355505b6001600288020188555050505b505050505050565b620006268162000243565b82525050565b60006020820190506200064360008301846200061b565b92915050565b613be980620006596000396000f3fe6080604052600436106101cd5760003560e01c80636352211e116100f7578063aa4c4cc111610095578063e985e9c511610064578063e985e9c5146106b8578063f2fde38b146106f5578063f5ce45ee1461071e578063fca846dc14610747576101cd565b8063aa4c4cc1146105ec578063af296da114610615578063b88d4fde14610652578063c87b56dd1461067b576101cd565b80638da5cb5b116100d15780638da5cb5b1461053057806395d89b411461055b5780639cb04aef14610586578063a22cb465146105c3576101cd565b80636352211e1461049f57806370a08231146104dc578063715018a614610519576101cd565b806323b872dd1161016f57806342842e0e1161013e57806342842e0e146103d95780634768d4ef146104025780634e7497fc146104465780635c300eba14610483576101cd565b806323b872dd146103315780632a5b14511461035a5780633ccfd60b146103855780633d092b3d1461039c576101cd565b8063095ea7b3116101ab578063095ea7b3146102775780630ef7ec74146102a057806318160ddd146102dd57806320a4deae14610308576101cd565b806301ffc9a7146101d257806306fdde031461020f578063081812fc1461023a575b600080fd5b3480156101de57600080fd5b506101f960048036038101906101f49190612973565b610772565b60405161020691906129bb565b60405180910390f35b34801561021b57600080fd5b50610224610854565b6040516102319190612a66565b60405180910390f35b34801561024657600080fd5b50610261600480360381019061025c9190612abe565b6108e6565b60405161026e9190612b2c565b60405180910390f35b34801561028357600080fd5b5061029e60048036038101906102999190612b73565b610902565b005b3480156102ac57600080fd5b506102c760048036038101906102c29190612abe565b610918565b6040516102d49190612c71565b60405180910390f35b3480156102e957600080fd5b506102f2610983565b6040516102ff9190612ca2565b60405180910390f35b34801561031457600080fd5b5061032f600480360381019061032a9190612cbd565b610989565b005b34801561033d57600080fd5b5061035860048036038101906103539190612cfd565b610a47565b005b34801561036657600080fd5b5061036f610b49565b60405161037c9190612ca2565b60405180910390f35b34801561039157600080fd5b5061039a610b4f565b005b3480156103a857600080fd5b506103c360048036038101906103be9190612abe565b610c0d565b6040516103d09190612e5f565b60405180910390f35b3480156103e557600080fd5b5061040060048036038101906103fb9190612cfd565b610eab565b005b34801561040e57600080fd5b5061042960048036038101906104249190612abe565b610ecb565b60405161043d989796959493929190612e81565b60405180910390f35b34801561045257600080fd5b5061046d60048036038101906104689190612cbd565b611133565b60405161047a9190612ca2565b60405180910390f35b61049d60048036038101906104989190612cbd565b611164565b005b3480156104ab57600080fd5b506104c660048036038101906104c19190612abe565b611477565b6040516104d39190612b2c565b60405180910390f35b3480156104e857600080fd5b5061050360048036038101906104fe9190612f1b565b611489565b6040516105109190612ca2565b60405180910390f35b34801561052557600080fd5b5061052e611543565b005b34801561053c57600080fd5b50610545611557565b6040516105529190612b2c565b60405180910390f35b34801561056757600080fd5b50610570611581565b60405161057d9190612a66565b60405180910390f35b34801561059257600080fd5b506105ad60048036038101906105a89190612f48565b611613565b6040516105ba91906129bb565b60405180910390f35b3480156105cf57600080fd5b506105ea60048036038101906105e59190612fb4565b611642565b005b3480156105f857600080fd5b50610613600480360381019061060e9190612cbd565b611658565b005b34801561062157600080fd5b5061063c60048036038101906106379190612cbd565b6116d1565b6040516106499190612b2c565b60405180910390f35b34801561065e57600080fd5b5061067960048036038101906106749190613129565b611713565b005b34801561068757600080fd5b506106a2600480360381019061069d9190612abe565b611730565b6040516106af9190612a66565b60405180910390f35b3480156106c457600080fd5b506106df60048036038101906106da91906131ac565b611799565b6040516106ec91906129bb565b60405180910390f35b34801561070157600080fd5b5061071c60048036038101906107179190612f1b565b61182d565b005b34801561072a57600080fd5b506107456004803603810190610740919061328d565b6118b3565b005b34801561075357600080fd5b5061075c6119f4565b6040516107699190612ca2565b60405180910390f35b60007f80ac58cd000000000000000000000000000000000000000000000000000000007bffffffffffffffffffffffffffffffffffffffffffffffffffffffff1916827bffffffffffffffffffffffffffffffffffffffffffffffffffffffff1916148061083d57507f5b5e139f000000000000000000000000000000000000000000000000000000007bffffffffffffffffffffffffffffffffffffffffffffffffffffffff1916827bffffffffffffffffffffffffffffffffffffffffffffffffffffffff1916145b8061084d575061084c826119fa565b5b9050919050565b606060008054610863906133b9565b80601f016020809104026020016040519081016040528092919081815260200182805461088f906133b9565b80156108dc5780601f106108b1576101008083540402835291602001916108dc565b820191906000526020600020905b8154815290600101906020018083116108bf57829003601f168201915b5050505050905090565b60006108f182611a64565b506108fb82611aec565b9050919050565b610914828261090f611b29565b611b31565b5050565b6060600c600083815260200190815260200160002080548060200260200160405190810160405280929190818152602001828054801561097757602002820191906000526020600020905b815481526020019060010190808311610963575b50505050509050919050565b60085481565b610991611b43565b600082141580156109a457506007548211155b6109e3576040517f08c379a00000000000000000000000000000000000000000000000000000000081526004016109da90613436565b60405180910390fd5b61940b811115610a28576040517f08c379a0000000000000000000000000000000000000000000000000000000008152600401610a1f906134a2565b60405180910390fd5b8060096000848152602001908152602001600020600301819055505050565b600073ffffffffffffffffffffffffffffffffffffffff168273ffffffffffffffffffffffffffffffffffffffff1603610ab95760006040517f64a0ae92000000000000000000000000000000000000000000000000000000008152600401610ab09190612b2c565b60405180910390fd5b6000610acd8383610ac8611b29565b611bca565b90508373ffffffffffffffffffffffffffffffffffffffff168173ffffffffffffffffffffffffffffffffffffffff1614610b43578382826040517f64283d7b000000000000000000000000000000000000000000000000000000008152600401610b3a939291906134c2565b60405180910390fd5b50505050565b60075481565b610b57611b43565b6000610b61611557565b73ffffffffffffffffffffffffffffffffffffffff1647604051610b849061352a565b60006040518083038185875af1925050503d8060008114610bc1576040519150601f19603f3d011682016040523d82523d6000602084013e610bc6565b606091505b5050905080610c0a576040517f08c379a0000000000000000000000000000000000000000000000000000000008152600401610c019061358b565b60405180910390fd5b50565b610c156128c2565b600960008381526020019081526020016000206040518061010001604052908160008201548152602001600182018054610c4e906133b9565b80601f0160208091040260200160405190810160405280929190818152602001828054610c7a906133b9565b8015610cc75780601f10610c9c57610100808354040283529160200191610cc7565b820191906000526020600020905b815481529060010190602001808311610caa57829003601f168201915b50505050508152602001600282015481526020016003820154815260200160048201548152602001600582018054610cfe906133b9565b80601f0160208091040260200160405190810160405280929190818152602001828054610d2a906133b9565b8015610d775780601f10610d4c57610100808354040283529160200191610d77565b820191906000526020600020905b815481529060010190602001808311610d5a57829003601f168201915b50505050508152602001600682018054610d90906133b9565b80601f0160208091040260200160405190810160405280929190818152602001828054610dbc906133b9565b8015610e095780601f10610dde57610100808354040283529160200191610e09565b820191906000526020600020905b815481529060010190602001808311610dec57829003601f168201915b50505050508152602001600782018054610e22906133b9565b80601f0160208091040260200160405190810160405280929190818152602001828054610e4e906133b9565b8015610e9b5780601f10610e7057610100808354040283529160200191610e9b565b820191906000526020600020905b815481529060010190602001808311610e7e57829003601f168201915b5050505050815250509050919050565b610ec683838360405180602001604052806000815250611713565b505050565b6009602052806000526040600020600091509050806000015490806001018054610ef4906133b9565b80601f0160208091040260200160405190810160405280929190818152602001828054610f20906133b9565b8015610f6d5780601f10610f4257610100808354040283529160200191610f6d565b820191906000526020600020905b815481529060010190602001808311610f5057829003601f168201915b505050505090806002015490806003015490806004015490806005018054610f94906133b9565b80601f0160208091040260200160405190810160405280929190818152602001828054610fc0906133b9565b801561100d5780601f10610fe25761010080835404028352916020019161100d565b820191906000526020600020905b815481529060010190602001808311610ff057829003601f168201915b505050505090806006018054611022906133b9565b80601f016020809104026020016040519081016040528092919081815260200182805461104e906133b9565b801561109b5780601f106110705761010080835404028352916020019161109b565b820191906000526020600020905b81548152906001019060200180831161107e57829003601f168201915b5050505050908060070180546110b0906133b9565b80601f01602080910402602001604051908101604052809291908181526020018280546110dc906133b9565b80156111295780601f106110fe57610100808354040283529160200191611129565b820191906000526020600020905b81548152906001019060200180831161110c57829003601f168201915b5050505050905088565b600c602052816000526040600020818154811061114f57600080fd5b90600052602060002001600091509150505481565b6000821415801561117757506007548211155b6111b6576040517f08c379a00000000000000000000000000000000000000000000000000000000081526004016111ad90613436565b60405180910390fd5b600960008381526020019081526020016000206002015434101561120f576040517f08c379a0000000000000000000000000000000000000000000000000000000008152600401611206906135f7565b60405180910390fd5b600073ffffffffffffffffffffffffffffffffffffffff16600b6000848152602001908152602001600020600083815260200190815260200160002060009054906101000a900473ffffffffffffffffffffffffffffffffffffffff1673ffffffffffffffffffffffffffffffffffffffff16146112c2576040517f08c379a00000000000000000000000000000000000000000000000000000000081526004016112b990613663565b60405180910390fd5b600960008381526020019081526020016000206004015481111561131b576040517f08c379a0000000000000000000000000000000000000000000000000000000008152600401611312906136cf565b60405180910390fd5b6001600960008481526020019081526020016000206003016000828254611342919061371e565b925050819055506001600a600084815260200190815260200160002060003373ffffffffffffffffffffffffffffffffffffffff1673ffffffffffffffffffffffffffffffffffffffff16815260200190815260200160002060006101000a81548160ff02191690831515021790555033600b6000848152602001908152602001600020600083815260200190815260200160002060006101000a81548173ffffffffffffffffffffffffffffffffffffffff021916908373ffffffffffffffffffffffffffffffffffffffff160217905550600c60008381526020019081526020016000208190806001815401808255809150506001900390600052602060002001600090919091909150556008600081548092919061146290613752565b919050555061147333600854611de4565b5050565b600061148282611a64565b9050919050565b60008073ffffffffffffffffffffffffffffffffffffffff168273ffffffffffffffffffffffffffffffffffffffff16036114fc5760006040517f89c62b640000000000000000000000000000000000000000000000000000000081526004016114f39190612b2c565b60405180910390fd5b600360008373ffffffffffffffffffffffffffffffffffffffff1673ffffffffffffffffffffffffffffffffffffffff168152602001908152602001600020549050919050565b61154b611b43565b6115556000611e02565b565b6000600660009054906101000a900473ffffffffffffffffffffffffffffffffffffffff16905090565b606060018054611590906133b9565b80601f01602080910402602001604051908101604052809291908181526020018280546115bc906133b9565b80156116095780601f106115de57610100808354040283529160200191611609565b820191906000526020600020905b8154815290600101906020018083116115ec57829003601f168201915b5050505050905090565b600a6020528160005260406000206020528060005260406000206000915091509054906101000a900460ff1681565b61165461164d611b29565b8383611ec8565b5050565b611660611b43565b6000821415801561167357506007548211155b6116b2576040517f08c379a00000000000000000000000000000000000000000000000000000000081526004016116a990613436565b60405180910390fd5b8060096000848152602001908152602001600020600201819055505050565b600b6020528160005260406000206020528060005260406000206000915091509054906101000a900473ffffffffffffffffffffffffffffffffffffffff1681565b61171e848484610a47565b61172a84848484612037565b50505050565b606061173b82611a64565b5060006117466121ee565b905060008151116117665760405180602001604052806000815250611791565b8061177084612205565b6040516020016117819291906137d6565b6040516020818303038152906040525b915050919050565b6000600560008473ffffffffffffffffffffffffffffffffffffffff1673ffffffffffffffffffffffffffffffffffffffff16815260200190815260200160002060008373ffffffffffffffffffffffffffffffffffffffff1673ffffffffffffffffffffffffffffffffffffffff16815260200190815260200160002060009054906101000a900460ff16905092915050565b611835611b43565b600073ffffffffffffffffffffffffffffffffffffffff168173ffffffffffffffffffffffffffffffffffffffff16036118a75760006040517f1e4fbdf700000000000000000000000000000000000000000000000000000000815260040161189e9190612b2c565b60405180910390fd5b6118b081611e02565b50565b6118bb611b43565b61940b841115611900576040517f08c379a00000000000000000000000000000000000000000000000000000000081526004016118f7906134a2565b60405180910390fd5b6007600081548092919061191390613752565b919050555060405180610100016040528060075481526020018781526020018681526020018581526020018581526020018481526020018381526020018281525060096000600754815260200190815260200160002060008201518160000155602082015181600101908161198891906139a6565b5060408201518160020155606082015181600301556080820151816004015560a08201518160050190816119bc91906139a6565b5060c08201518160060190816119d291906139a6565b5060e08201518160070190816119e891906139a6565b50905050505050505050565b61940b81565b60007f01ffc9a7000000000000000000000000000000000000000000000000000000007bffffffffffffffffffffffffffffffffffffffffffffffffffffffff1916827bffffffffffffffffffffffffffffffffffffffffffffffffffffffff1916149050919050565b600080611a70836122d3565b9050600073ffffffffffffffffffffffffffffffffffffffff168173ffffffffffffffffffffffffffffffffffffffff1603611ae357826040517f7e273289000000000000000000000000000000000000000000000000000000008152600401611ada9190612ca2565b60405180910390fd5b80915050919050565b60006004600083815260200190815260200160002060009054906101000a900473ffffffffffffffffffffffffffffffffffffffff169050919050565b600033905090565b611b3e8383836001612310565b505050565b611b4b611b29565b73ffffffffffffffffffffffffffffffffffffffff16611b69611557565b73ffffffffffffffffffffffffffffffffffffffff1614611bc857611b8c611b29565b6040517f118cdaa7000000000000000000000000000000000000000000000000000000008152600401611bbf9190612b2c565b60405180910390fd5b565b600080611bd6846122d3565b9050600073ffffffffffffffffffffffffffffffffffffffff168373ffffffffffffffffffffffffffffffffffffffff1614611c1857611c178184866124d5565b5b600073ffffffffffffffffffffffffffffffffffffffff168173ffffffffffffffffffffffffffffffffffffffff1614611ca957611c5a600085600080612310565b6001600360008373ffffffffffffffffffffffffffffffffffffffff1673ffffffffffffffffffffffffffffffffffffffff168152602001908152602001600020600082825403925050819055505b600073ffffffffffffffffffffffffffffffffffffffff168573ffffffffffffffffffffffffffffffffffffffff1614611d2c576001600360008773ffffffffffffffffffffffffffffffffffffffff1673ffffffffffffffffffffffffffffffffffffffff168152602001908152602001600020600082825401925050819055505b846002600086815260200190815260200160002060006101000a81548173ffffffffffffffffffffffffffffffffffffffff021916908373ffffffffffffffffffffffffffffffffffffffff160217905550838573ffffffffffffffffffffffffffffffffffffffff168273ffffffffffffffffffffffffffffffffffffffff167fddf252ad1be2c89b69c2b068fc378daa952ba7f163c4a11628f55a4df523b3ef60405160405180910390a4809150509392505050565b611dfe828260405180602001604052806000815250612599565b5050565b6000600660009054906101000a900473ffffffffffffffffffffffffffffffffffffffff16905081600660006101000a81548173ffffffffffffffffffffffffffffffffffffffff021916908373ffffffffffffffffffffffffffffffffffffffff1602179055508173ffffffffffffffffffffffffffffffffffffffff168173ffffffffffffffffffffffffffffffffffffffff167f8be0079c531659141344cd1fd0a4f28419497f9722a3daafe3b4186f6b6457e060405160405180910390a35050565b600073ffffffffffffffffffffffffffffffffffffffff168273ffffffffffffffffffffffffffffffffffffffff1603611f3957816040517f5b08ba18000000000000000000000000000000000000000000000000000000008152600401611f309190612b2c565b60405180910390fd5b80600560008573ffffffffffffffffffffffffffffffffffffffff1673ffffffffffffffffffffffffffffffffffffffff16815260200190815260200160002060008473ffffffffffffffffffffffffffffffffffffffff1673ffffffffffffffffffffffffffffffffffffffff16815260200190815260200160002060006101000a81548160ff0219169083151502179055508173ffffffffffffffffffffffffffffffffffffffff168373ffffffffffffffffffffffffffffffffffffffff167f17307eab39ab6107e8899845ad3d59bd9653f200f220920489ca2b5937696c318360405161202a91906129bb565b60405180910390a3505050565b60008373ffffffffffffffffffffffffffffffffffffffff163b11156121e8578273ffffffffffffffffffffffffffffffffffffffff1663150b7a0261207b611b29565b8685856040518563ffffffff1660e01b815260040161209d9493929190613acd565b6020604051808303816000875af19250505080156120d957506040513d601f19601f820116820180604052508101906120d69190613b2e565b60015b61215d573d8060008114612109576040519150601f19603f3d011682016040523d82523d6000602084013e61210e565b606091505b50600081510361215557836040517f64a0ae9200000000000000000000000000000000000000000000000000000000815260040161214c9190612b2c565b60405180910390fd5b805181602001fd5b63150b7a0260e01b7bffffffffffffffffffffffffffffffffffffffffffffffffffffffff1916817bffffffffffffffffffffffffffffffffffffffffffffffffffffffff1916146121e657836040517f64a0ae920000000000000000000000000000000000000000000000000000000081526004016121dd9190612b2c565b60405180910390fd5b505b50505050565b606060405180602001604052806000815250905090565b606060006001612214846125b5565b01905060008167ffffffffffffffff81111561223357612232612ffe565b5b6040519080825280601f01601f1916602001820160405280156122655781602001600182028036833780820191505090505b509050600082602001820190505b6001156122c8578080600190039150507f3031323334353637383961626364656600000000000000000000000000000000600a86061a8153600a85816122bc576122bb613b5b565b5b04945060008503612273575b819350505050919050565b60006002600083815260200190815260200160002060009054906101000a900473ffffffffffffffffffffffffffffffffffffffff169050919050565b80806123495750600073ffffffffffffffffffffffffffffffffffffffff168273ffffffffffffffffffffffffffffffffffffffff1614155b1561247d57600061235984611a64565b9050600073ffffffffffffffffffffffffffffffffffffffff168373ffffffffffffffffffffffffffffffffffffffff16141580156123c457508273ffffffffffffffffffffffffffffffffffffffff168173ffffffffffffffffffffffffffffffffffffffff1614155b80156123d757506123d58184611799565b155b1561241957826040517fa9fbf51f0000000000000000000000000000000000000000000000000000000081526004016124109190612b2c565b60405180910390fd5b811561247b57838573ffffffffffffffffffffffffffffffffffffffff168273ffffffffffffffffffffffffffffffffffffffff167f8c5be1e5ebec7d5bd14f71427d1e84f3dd0314c0f7b2291e5b200ac8c7c3b92560405160405180910390a45b505b836004600085815260200190815260200160002060006101000a81548173ffffffffffffffffffffffffffffffffffffffff021916908373ffffffffffffffffffffffffffffffffffffffff16021790555050505050565b6124e0838383612708565b61259457600073ffffffffffffffffffffffffffffffffffffffff168373ffffffffffffffffffffffffffffffffffffffff160361255557806040517f7e27328900000000000000000000000000000000000000000000000000000000815260040161254c9190612ca2565b60405180910390fd5b81816040517f177e802f00000000000000000000000000000000000000000000000000000000815260040161258b929190613b8a565b60405180910390fd5b505050565b6125a383836127c9565b6125b06000848484612037565b505050565b600080600090507a184f03e93ff9f4daa797ed6e38ed64bf6a1f0100000000000000008310612613577a184f03e93ff9f4daa797ed6e38ed64bf6a1f010000000000000000838161260957612608613b5b565b5b0492506040810190505b6d04ee2d6d415b85acef81000000008310612650576d04ee2d6d415b85acef8100000000838161264657612645613b5b565b5b0492506020810190505b662386f26fc10000831061267f57662386f26fc10000838161267557612674613b5b565b5b0492506010810190505b6305f5e10083106126a8576305f5e100838161269e5761269d613b5b565b5b0492506008810190505b61271083106126cd5761271083816126c3576126c2613b5b565b5b0492506004810190505b606483106126f057606483816126e6576126e5613b5b565b5b0492506002810190505b600a83106126ff576001810190505b80915050919050565b60008073ffffffffffffffffffffffffffffffffffffffff168373ffffffffffffffffffffffffffffffffffffffff16141580156127c057508273ffffffffffffffffffffffffffffffffffffffff168473ffffffffffffffffffffffffffffffffffffffff16148061278157506127808484611799565b5b806127bf57508273ffffffffffffffffffffffffffffffffffffffff166127a783611aec565b73ffffffffffffffffffffffffffffffffffffffff16145b5b90509392505050565b600073ffffffffffffffffffffffffffffffffffffffff168273ffffffffffffffffffffffffffffffffffffffff160361283b5760006040517f64a0ae920000000000000000000000000000000000000000000000000000000081526004016128329190612b2c565b60405180910390fd5b600061284983836000611bca565b9050600073ffffffffffffffffffffffffffffffffffffffff168173ffffffffffffffffffffffffffffffffffffffff16146128bd5760006040517f73c6ac6e0000000000000000000000000000000000000000000000000000000081526004016128b49190612b2c565b60405180910390fd5b505050565b60405180610100016040528060008152602001606081526020016000815260200160008152602001600081526020016060815260200160608152602001606081525090565b6000604051905090565b600080fd5b600080fd5b60007fffffffff0000000000000000000000000000000000000000000000000000000082169050919050565b6129508161291b565b811461295b57600080fd5b50565b60008135905061296d81612947565b92915050565b60006020828403121561298957612988612911565b5b60006129978482850161295e565b91505092915050565b60008115159050919050565b6129b5816129a0565b82525050565b60006020820190506129d060008301846129ac565b92915050565b600081519050919050565b600082825260208201905092915050565b60005b83811015612a105780820151818401526020810190506129f5565b60008484015250505050565b6000601f19601f8301169050919050565b6000612a38826129d6565b612a4281856129e1565b9350612a528185602086016129f2565b612a5b81612a1c565b840191505092915050565b60006020820190508181036000830152612a808184612a2d565b905092915050565b6000819050919050565b612a9b81612a88565b8114612aa657600080fd5b50565b600081359050612ab881612a92565b92915050565b600060208284031215612ad457612ad3612911565b5b6000612ae284828501612aa9565b91505092915050565b600073ffffffffffffffffffffffffffffffffffffffff82169050919050565b6000612b1682612aeb565b9050919050565b612b2681612b0b565b82525050565b6000602082019050612b416000830184612b1d565b92915050565b612b5081612b0b565b8114612b5b57600080fd5b50565b600081359050612b6d81612b47565b92915050565b60008060408385031215612b8a57612b89612911565b5b6000612b9885828601612b5e565b9250506020612ba985828601612aa9565b9150509250929050565b600081519050919050565b600082825260208201905092915050565b6000819050602082019050919050565b612be881612a88565b82525050565b6000612bfa8383612bdf565b60208301905092915050565b6000602082019050919050565b6000612c1e82612bb3565b612c288185612bbe565b9350612c3383612bcf565b8060005b83811015612c64578151612c4b8882612bee565b9750612c5683612c06565b925050600181019050612c37565b5085935050505092915050565b60006020820190508181036000830152612c8b8184612c13565b905092915050565b612c9c81612a88565b82525050565b6000602082019050612cb76000830184612c93565b92915050565b60008060408385031215612cd457612cd3612911565b5b6000612ce285828601612aa9565b9250506020612cf385828601612aa9565b9150509250929050565b600080600060608486031215612d1657612d15612911565b5b6000612d2486828701612b5e565b9350506020612d3586828701612b5e565b9250506040612d4686828701612aa9565b9150509250925092565b600082825260208201905092915050565b6000612d6c826129d6565b612d768185612d50565b9350612d868185602086016129f2565b612d8f81612a1c565b840191505092915050565b600061010083016000830151612db36000860182612bdf565b5060208301518482036020860152612dcb8282612d61565b9150506040830151612de06040860182612bdf565b506060830151612df36060860182612bdf565b506080830151612e066080860182612bdf565b5060a083015184820360a0860152612e1e8282612d61565b91505060c083015184820360c0860152612e388282612d61565b91505060e083015184820360e0860152612e528282612d61565b9150508091505092915050565b60006020820190508181036000830152612e798184612d9a565b905092915050565b600061010082019050612e97600083018b612c93565b8181036020830152612ea9818a612a2d565b9050612eb86040830189612c93565b612ec56060830188612c93565b612ed26080830187612c93565b81810360a0830152612ee48186612a2d565b905081810360c0830152612ef88185612a2d565b905081810360e0830152612f0c8184612a2d565b90509998505050505050505050565b600060208284031215612f3157612f30612911565b5b6000612f3f84828501612b5e565b91505092915050565b60008060408385031215612f5f57612f5e612911565b5b6000612f6d85828601612aa9565b9250506020612f7e85828601612b5e565b9150509250929050565b612f91816129a0565b8114612f9c57600080fd5b50565b600081359050612fae81612f88565b92915050565b60008060408385031215612fcb57612fca612911565b5b6000612fd985828601612b5e565b9250506020612fea85828601612f9f565b9150509250929050565b600080fd5b600080fd5b7f4e487b7100000000000000000000000000000000000000000000000000000000600052604160045260246000fd5b61303682612a1c565b810181811067ffffffffffffffff8211171561305557613054612ffe565b5b80604052505050565b6000613068612907565b9050613074828261302d565b919050565b600067ffffffffffffffff82111561309457613093612ffe565b5b61309d82612a1c565b9050602081019050919050565b82818337600083830152505050565b60006130cc6130c784613079565b61305e565b9050828152602081018484840111156130e8576130e7612ff9565b5b6130f38482856130aa565b509392505050565b600082601f8301126131105761310f612ff4565b5b81356131208482602086016130b9565b91505092915050565b6000806000806080858703121561314357613142612911565b5b600061315187828801612b5e565b945050602061316287828801612b5e565b935050604061317387828801612aa9565b925050606085013567ffffffffffffffff81111561319457613193612916565b5b6131a0878288016130fb565b91505092959194509250565b600080604083850312156131c3576131c2612911565b5b60006131d185828601612b5e565b92505060206131e285828601612b5e565b9150509250929050565b600067ffffffffffffffff82111561320757613206612ffe565b5b61321082612a1c565b9050602081019050919050565b600061323061322b846131ec565b61305e565b90508281526020810184848401111561324c5761324b612ff9565b5b6132578482856130aa565b509392505050565b600082601f83011261327457613273612ff4565b5b813561328484826020860161321d565b91505092915050565b60008060008060008060c087890312156132aa576132a9612911565b5b600087013567ffffffffffffffff8111156132c8576132c7612916565b5b6132d489828a0161325f565b96505060206132e589828a01612aa9565b95505060406132f689828a01612aa9565b945050606087013567ffffffffffffffff81111561331757613316612916565b5b61332389828a0161325f565b935050608087013567ffffffffffffffff81111561334457613343612916565b5b61335089828a0161325f565b92505060a087013567ffffffffffffffff81111561337157613370612916565b5b61337d89828a0161325f565b9150509295509295509295565b7f4e487b7100000000000000000000000000000000000000000000000000000000600052602260045260246000fd5b600060028204905060018216806133d157607f821691505b6020821081036133e4576133e361338a565b5b50919050565b7f496e76616c6964206d6174636820494400000000000000000000000000000000600082015250565b60006134206010836129e1565b915061342b826133ea565b602082019050919050565b6000602082019050818103600083015261344f81613413565b9050919050565b7f43616e6e6f7420657863656564207374616469756d2063617061636974790000600082015250565b600061348c601e836129e1565b915061349782613456565b602082019050919050565b600060208201905081810360008301526134bb8161347f565b9050919050565b60006060820190506134d76000830186612b1d565b6134e46020830185612c93565b6134f16040830184612b1d565b949350505050565b600081905092915050565b50565b60006135146000836134f9565b915061351f82613504565b600082019050919050565b600061353582613507565b9150819050919050565b7f5769746864726177616c206661696c6564000000000000000000000000000000600082015250565b60006135756011836129e1565b91506135808261353f565b602082019050919050565b600060208201905081810360008301526135a481613568565b9050919050565b7f496e636f727265637420616d6f756e742073656e740000000000000000000000600082015250565b60006135e16015836129e1565b91506135ec826135ab565b602082019050919050565b60006020820190508181036000830152613610816135d4565b9050919050565b7f5365617420616c72656164792074616b656e0000000000000000000000000000600082015250565b600061364d6012836129e1565b915061365882613617565b602082019050919050565b6000602082019050818103600083015261367c81613640565b9050919050565b7f496e76616c69642073656174206e756d62657200000000000000000000000000600082015250565b60006136b96013836129e1565b91506136c482613683565b602082019050919050565b600060208201905081810360008301526136e8816136ac565b9050919050565b7f4e487b7100000000000000000000000000000000000000000000000000000000600052601160045260246000fd5b600061372982612a88565b915061373483612a88565b925082820390508181111561374c5761374b6136ef565b5b92915050565b600061375d82612a88565b91507fffffffffffffffffffffffffffffffffffffffffffffffffffffffffffffffff820361378f5761378e6136ef565b5b600182019050919050565b600081905092915050565b60006137b0826129d6565b6137ba818561379a565b93506137ca8185602086016129f2565b80840191505092915050565b60006137e282856137a5565b91506137ee82846137a5565b91508190509392505050565b60008190508160005260206000209050919050565b60006020601f8301049050919050565b600082821b905092915050565b60006008830261385c7fffffffffffffffffffffffffffffffffffffffffffffffffffffffffffffffff8261381f565b613866868361381f565b95508019841693508086168417925050509392505050565b6000819050919050565b60006138a361389e61389984612a88565b61387e565b612a88565b9050919050565b6000819050919050565b6138bd83613888565b6138d16138c9826138aa565b84845461382c565b825550505050565b600090565b6138e66138d9565b6138f18184846138b4565b505050565b5b818110156139155761390a6000826138de565b6001810190506138f7565b5050565b601f82111561395a5761392b816137fa565b6139348461380f565b81016020851015613943578190505b61395761394f8561380f565b8301826138f6565b50505b505050565b600082821c905092915050565b600061397d6000198460080261395f565b1980831691505092915050565b6000613996838361396c565b9150826002028217905092915050565b6139af826129d6565b67ffffffffffffffff8111156139c8576139c7612ffe565b5b6139d282546133b9565b6139dd828285613919565b600060209050601f831160018114613a1057600084156139fe578287015190505b613a08858261398a565b865550613a70565b601f198416613a1e866137fa565b60005b82811015613a4657848901518255600182019150602085019450602081019050613a21565b86831015613a635784890151613a5f601f89168261396c565b8355505b6001600288020188555050505b505050505050565b600081519050919050565b600082825260208201905092915050565b6000613a9f82613a78565b613aa98185613a83565b9350613ab98185602086016129f2565b613ac281612a1c565b840191505092915050565b6000608082019050613ae26000830187612b1d565b613aef6020830186612b1d565b613afc6040830185612c93565b8181036060830152613b0e8184613a94565b905095945050505050565b600081519050613b2881612947565b92915050565b600060208284031215613b4457613b43612911565b5b6000613b5284828501613b19565b91505092915050565b7f4e487b7100000000000000000000000000000000000000000000000000000000600052601260045260246000fd5b6000604082019050613b9f6000830185612b1d565b613bac6020830184612c93565b939250505056fea26469706673582212205c0d349dc4e68436181f9a470401c9e6f76b35884aa3abd23887406b152f6e0664736f6c63430008180033",
  "linkReferences": {},
  "deployedLinkReferences": {}
}