{
  "_format": "hh-sol-artifact-1",
  "contractName": "RedTickets",
  "sourceName": "contracts/RedTickets.sol",
  "abi": [
    {
      "inputs": [
        {
          "internalType": "address",
          "name": "initialOwner",
          "type": "address"
        }
      ],
      "stateMutability": "nonpayable",
      "type": "constructor"
    },
    {
      "inputs": [
        {
          "internalType": "address",
          "name": "sender",
          "type": "address"
        },
        {
          "internalType": "uint256",
          "name": "tokenId",
          "type": "uint256"
        },
        {
          "internalType": "address",
          "name": "owner",
          "type": "address"
        }
      ],
      "name": "ERC721IncorrectOwner",
      "type": "error"
    },
    {
      "inputs": [
        {
          "internalType": "address",
          "name": "operator",
          "type": "address"
        },
        {
          "internalType": "uint256",
          "name": "tokenId",
          "type": "uint256"
        }
      ],
      "name": "ERC721InsufficientApproval",
      "type": "error"
    },
    {
      "inputs": [
        {
          "internalType": "address",
          "name": "approver",
          "type": "address"
        }
      ],
      "name": "ERC721InvalidApprover",
      "type": "error"
    },
    {
      "inputs": [
        {
          "internalType": "address",
          "name": "operator",
          "type": "address"
        }
      ],
      "name": "ERC721InvalidOperator",
      "type": "error"
    },
    {
      "inputs": [
        {
          "internalType": "address",
          "name": "owner",
          "type": "address"
        }
      ],
      "name": "ERC721InvalidOwner",
      "type": "error"
    },
    {
      "inputs": [
        {
          "internalType": "address",
          "name": "receiver",
          "type": "address"
        }
      ],
      "name": "ERC721InvalidReceiver",
      "type": "error"
    },
    {
      "inputs": [
        {
          "internalType": "address",
          "name": "sender",
          "type": "address"
        }
      ],
      "name": "ERC721InvalidSender",
      "type": "error"
    },
    {
      "inputs": [
        {
          "internalType": "uint256",
          "name": "tokenId",
          "type": "uint256"
        }
      ],
      "name": "ERC721NonexistentToken",
      "type": "error"
    },
    {
      "inputs": [
        {
          "internalType": "address",
          "name": "owner",
          "type": "address"
        }
      ],
      "name": "OwnableInvalidOwner",
      "type": "error"
    },
    {
      "inputs": [
        {
          "internalType": "address",
          "name": "account",
          "type": "address"
        }
      ],
      "name": "OwnableUnauthorizedAccount",
      "type": "error"
    },
    {
      "anonymous": false,
      "inputs": [
        {
          "indexed": true,
          "internalType": "address",
          "name": "owner",
          "type": "address"
        },
        {
          "indexed": true,
          "internalType": "address",
          "name": "approved",
          "type": "address"
        },
        {
          "indexed": true,
          "internalType": "uint256",
          "name": "tokenId",
          "type": "uint256"
        }
      ],
      "name": "Approval",
      "type": "event"
    },
    {
      "anonymous": false,
      "inputs": [
        {
          "indexed": true,
          "internalType": "address",
          "name": "owner",
          "type": "address"
        },
        {
          "indexed": true,
          "internalType": "address",
          "name": "operator",
          "type": "address"
        },
        {
          "indexed": false,
          "internalType": "bool",
          "name": "approved",
          "type": "bool"
        }
      ],
      "name": "ApprovalForAll",
      "type": "event"
    },
    {
      "anonymous": false,
      "inputs": [
        {
          "indexed": true,
          "internalType": "address",
          "name": "previousOwner",
          "type": "address"
        },
        {
          "indexed": true,
          "internalType": "address",
          "name": "newOwner",
          "type": "address"
        }
      ],
      "name": "OwnershipTransferred",
      "type": "event"
    },
    {
      "anonymous": false,
      "inputs": [
        {
          "indexed": true,
          "internalType": "address",
          "name": "from",
          "type": "address"
        },
        {
          "indexed": true,
          "internalType": "address",
          "name": "to",
          "type": "address"
        },
        {
          "indexed": true,
          "internalType": "uint256",
          "name": "tokenId",
          "type": "uint256"
        }
      ],
      "name": "Transfer",
      "type": "event"
    },
    {
      "inputs": [],
      "name": "MAX_TICKETS",
      "outputs": [
        {
          "internalType": "uint256",
          "name": "",
          "type": "uint256"
        }
      ],
      "stateMutability": "view",
      "type": "function"
    },
    {
      "inputs": [
        {
          "internalType": "address",
          "name": "to",
          "type": "address"
        },
        {
          "internalType": "uint256",
          "name": "tokenId",
          "type": "uint256"
        }
      ],
      "name": "approve",
      "outputs": [],
      "stateMutability": "nonpayable",
      "type": "function"
    },
    {
      "inputs": [
        {
          "internalType": "address",
          "name": "owner",
          "type": "address"
        }
      ],
      "name": "balanceOf",
      "outputs": [
        {
          "internalType": "uint256",
          "name": "",
          "type": "uint256"
        }
      ],
      "stateMutability": "view",
      "type": "function"
    },
    {
      "inputs": [
        {
          "internalType": "uint256",
          "name": "tokenId",
          "type": "uint256"
        }
      ],
      "name": "getApproved",
      "outputs": [
        {
          "internalType": "address",
          "name": "",
          "type": "address"
        }
      ],
      "stateMutability": "view",
      "type": "function"
    },
    {
      "inputs": [
        {
          "internalType": "uint256",
          "name": "_id",
          "type": "uint256"
        }
      ],
      "name": "getMatch",
      "outputs": [
        {
          "components": [
            {
              "internalType": "uint256",
              "name": "id",
              "type": "uint256"
            },
            {
              "internalType": "string",
              "name": "name",
              "type": "string"
            },
            {
              "internalType": "uint256",
              "name": "price",
              "type": "uint256"
            },
            {
              "internalType": "uint256",
              "name": "tickets",
              "type": "uint256"
            },
            {
              "internalType": "uint256",
              "name": "maxTickets",
              "type": "uint256"
            },
            {
              "internalType": "string",
              "name": "date",
              "type": "string"
            },
            {
              "internalType": "string",
              "name": "time",
              "type": "string"
            },
            {
              "internalType": "string",
              "name": "location",
              "type": "string"
            }
          ],
          "internalType": "struct RedTickets.Match",
          "name": "",
          "type": "tuple"
        }
      ],
      "stateMutability": "view",
      "type": "function"
    },
    {
      "inputs": [
        {
          "internalType": "uint256",
          "name": "_id",
          "type": "uint256"
        }
      ],
      "name": "getSeatsTaken",
      "outputs": [
        {
          "internalType": "uint256[]",
          "name": "",
          "type": "uint256[]"
        }
      ],
      "stateMutability": "view",
      "type": "function"
    },
    {
      "inputs": [
        {
          "internalType": "uint256",
          "name": "",
          "type": "uint256"
        },
        {
          "internalType": "address",
          "name": "",
          "type": "address"
        }
      ],
      "name": "hasBought",
      "outputs": [
        {
          "internalType": "bool",
          "name": "",
          "type": "bool"
        }
      ],
      "stateMutability": "view",
      "type": "function"
    },
    {
      "inputs": [
        {
          "internalType": "address",
          "name": "owner",
          "type": "address"
        },
        {
          "internalType": "address",
          "name": "operator",
          "type": "address"
        }
      ],
      "name": "isApprovedForAll",
      "outputs": [
        {
          "internalType": "bool",
          "name": "",
          "type": "bool"
        }
      ],
      "stateMutability": "view",
      "type": "function"
    },
    {
      "inputs": [
        {
          "internalType": "string",
          "name": "_name",
          "type": "string"
        },
        {
          "internalType": "uint256",
          "name": "_price",
          "type": "uint256"
        },
        {
          "internalType": "uint256",
          "name": "_maxTickets",
          "type": "uint256"
        },
        {
          "internalType": "string",
          "name": "_date",
          "type": "string"
        },
        {
          "internalType": "string",
          "name": "_time",
          "type": "string"
        },
        {
          "internalType": "string",
          "name": "_location",
          "type": "string"
        }
      ],
      "name": "listMatch",
      "outputs": [],
      "stateMutability": "nonpayable",
      "type": "function"
    },
    {
      "inputs": [
        {
          "internalType": "uint256",
          "name": "",
          "type": "uint256"
        }
      ],
      "name": "matches",
      "outputs": [
        {
          "internalType": "uint256",
          "name": "id",
          "type": "uint256"
        },
        {
          "internalType": "string",
          "name": "name",
          "type": "string"
        },
        {
          "internalType": "uint256",
          "name": "price",
          "type": "uint256"
        },
        {
          "internalType": "uint256",
          "name": "tickets",
          "type": "uint256"
        },
        {
          "internalType": "uint256",
          "name": "maxTickets",
          "type": "uint256"
        },
        {
          "internalType": "string",
          "name": "date",
          "type": "string"
        },
        {
          "internalType": "string",
          "name": "time",
          "type": "string"
        },
        {
          "internalType": "string",
          "name": "location",
          "type": "string"
        }
      ],
      "stateMutability": "view",
      "type": "function"
    },
    {
      "inputs": [
        {
          "internalType": "uint256",
          "name": "_id",
          "type": "uint256"
        },
        {
          "internalType": "uint256",
          "name": "_seat",
          "type": "uint256"
        }
      ],
      "name": "mintTicket",
      "outputs": [],
      "stateMutability": "payable",
      "type": "function"
    },
    {
      "inputs": [],
      "name": "name",
      "outputs": [
        {
          "internalType": "string",
          "name": "",
          "type": "string"
        }
      ],
      "stateMutability": "view",
      "type": "function"
    },
    {
      "inputs": [],
      "name": "owner",
      "outputs": [
        {
          "internalType": "address",
          "name": "",
          "type": "address"
        }
      ],
      "stateMutability": "view",
      "type": "function"
    },
    {
      "inputs": [
        {
          "internalType": "uint256",
          "name": "tokenId",
          "type": "uint256"
        }
      ],
      "name": "ownerOf",
      "outputs": [
        {
          "internalType": "address",
          "name": "",
          "type": "address"
        }
      ],
      "stateMutability": "view",
      "type": "function"
    },
    {
      "inputs": [
        {
          "internalType": "uint256",
          "name": "_id",
          "type": "uint256"
        }
      ],
      "name": "removeMatch",
      "outputs": [],
      "stateMutability": "nonpayable",
      "type": "function"
    },
    {
      "inputs": [],
      "name": "renounceOwnership",
      "outputs": [],
      "stateMutability": "nonpayable",
      "type": "function"
    },
    {
      "inputs": [
        {
          "internalType": "address",
          "name": "from",
          "type": "address"
        },
        {
          "internalType": "address",
          "name": "to",
          "type": "address"
        },
        {
          "internalType": "uint256",
          "name": "tokenId",
          "type": "uint256"
        }
      ],
      "name": "safeTransferFrom",
      "outputs": [],
      "stateMutability": "nonpayable",
      "type": "function"
    },
    {
      "inputs": [
        {
          "internalType": "address",
          "name": "from",
          "type": "address"
        },
        {
          "internalType": "address",
          "name": "to",
          "type": "address"
        },
        {
          "internalType": "uint256",
          "name": "tokenId",
          "type": "uint256"
        },
        {
          "internalType": "bytes",
          "name": "data",
          "type": "bytes"
        }
      ],
      "name": "safeTransferFrom",
      "outputs": [],
      "stateMutability": "nonpayable",
      "type": "function"
    },
    {
      "inputs": [
        {
          "internalType": "uint256",
          "name": "",
          "type": "uint256"
        },
        {
          "internalType": "uint256",
          "name": "",
          "type": "uint256"
        }
      ],
      "name": "seatTaken",
      "outputs": [
        {
          "internalType": "address",
          "name": "",
          "type": "address"
        }
      ],
      "stateMutability": "view",
      "type": "function"
    },
    {
      "inputs": [
        {
          "internalType": "uint256",
          "name": "",
          "type": "uint256"
        },
        {
          "internalType": "uint256",
          "name": "",
          "type": "uint256"
        }
      ],
      "name": "seatsTaken",
      "outputs": [
        {
          "internalType": "uint256",
          "name": "",
          "type": "uint256"
        }
      ],
      "stateMutability": "view",
      "type": "function"
    },
    {
      "inputs": [
        {
          "internalType": "address",
          "name": "operator",
          "type": "address"
        },
        {
          "internalType": "bool",
          "name": "approved",
          "type": "bool"
        }
      ],
      "name": "setApprovalForAll",
      "outputs": [],
      "stateMutability": "nonpayable",
      "type": "function"
    },
    {
      "inputs": [
        {
          "internalType": "uint256",
          "name": "_id",
          "type": "uint256"
        },
        {
          "internalType": "uint256",
          "name": "_price",
          "type": "uint256"
        }
      ],
      "name": "setTicketPrice",
      "outputs": [],
      "stateMutability": "nonpayable",
      "type": "function"
    },
    {
      "inputs": [
        {
          "internalType": "uint256",
          "name": "_id",
          "type": "uint256"
        },
        {
          "internalType": "uint256",
          "name": "_tickets",
          "type": "uint256"
        }
      ],
      "name": "setTicketsForSale",
      "outputs": [],
      "stateMutability": "nonpayable",
      "type": "function"
    },
    {
      "inputs": [
        {
          "internalType": "bytes4",
          "name": "interfaceId",
          "type": "bytes4"
        }
      ],
      "name": "supportsInterface",
      "outputs": [
        {
          "internalType": "bool",
          "name": "",
          "type": "bool"
        }
      ],
      "stateMutability": "view",
      "type": "function"
    },
    {
      "inputs": [],
      "name": "symbol",
      "outputs": [
        {
          "internalType": "string",
          "name": "",
          "type": "string"
        }
      ],
      "stateMutability": "view",
      "type": "function"
    },
    {
      "inputs": [
        {
          "internalType": "uint256",
          "name": "tokenId",
          "type": "uint256"
        }
      ],
      "name": "tokenURI",
      "outputs": [
        {
          "internalType": "string",
          "name": "",
          "type": "string"
        }
      ],
      "stateMutability": "view",
      "type": "function"
    },
    {
      "inputs": [],
      "name": "totalMatches",
      "outputs": [
        {
          "internalType": "uint256",
          "name": "",
          "type": "uint256"
        }
      ],
      "stateMutability": "view",
      "type": "function"
    },
    {
      "inputs": [],
      "name": "totalSupply",
      "outputs": [
        {
          "internalType": "uint256",
          "name": "",
          "type": "uint256"
        }
      ],
      "stateMutability": "view",
      "type": "function"
    },
    {
      "inputs": [
        {
          "internalType": "address",
          "name": "from",
          "type": "address"
        },
        {
          "internalType": "address",
          "name": "to",
          "type": "address"
        },
        {
          "internalType": "uint256",
          "name": "tokenId",
          "type": "uint256"
        }
      ],
      "name": "transferFrom",
      "outputs": [],
      "stateMutability": "nonpayable",
      "type": "function"
    },
    {
      "inputs": [
        {
          "internalType": "address",
          "name": "newOwner",
          "type": "address"
        }
      ],
      "name": "transferOwnership",
      "outputs": [],
      "stateMutability": "nonpayable",
      "type": "function"
    },
    {
      "inputs": [],
      "name": "withdraw",
      "outputs": [],
      "stateMutability": "nonpayable",
      "type": "function"
    }
  ],
  "bytecode": "0x60806040523480156200001157600080fd5b50604051620044b2380380620044b2833981810160405281019062000037919062000288565b806040518060400160405280600a81526020017f5265645469636b657473000000000000000000000000000000000000000000008152506040518060400160405280600381526020017f52544b00000000000000000000000000000000000000000000000000000000008152508160009081620000b5919062000534565b508060019081620000c7919062000534565b505050600073ffffffffffffffffffffffffffffffffffffffff168173ffffffffffffffffffffffffffffffffffffffff16036200013f5760006040517f1e4fbdf70000000000000000000000000000000000000000000000000000000081526004016200013691906200062c565b60405180910390fd5b62000150816200015860201b60201c565b505062000649565b6000600660009054906101000a900473ffffffffffffffffffffffffffffffffffffffff16905081600660006101000a81548173ffffffffffffffffffffffffffffffffffffffff021916908373ffffffffffffffffffffffffffffffffffffffff1602179055508173ffffffffffffffffffffffffffffffffffffffff168173ffffffffffffffffffffffffffffffffffffffff167f8be0079c531659141344cd1fd0a4f28419497f9722a3daafe3b4186f6b6457e060405160405180910390a35050565b600080fd5b600073ffffffffffffffffffffffffffffffffffffffff82169050919050565b6000620002508262000223565b9050919050565b620002628162000243565b81146200026e57600080fd5b50565b600081519050620002828162000257565b92915050565b600060208284031215620002a157620002a06200021e565b5b6000620002b18482850162000271565b91505092915050565b600081519050919050565b7f4e487b7100000000000000000000000000000000000000000000000000000000600052604160045260246000fd5b7f4e487b7100000000000000000000000000000000000000000000000000000000600052602260045260246000fd5b600060028204905060018216806200033c57607f821691505b602082108103620003525762000351620002f4565b5b50919050565b60008190508160005260206000209050919050565b60006020601f8301049050919050565b600082821b905092915050565b600060088302620003bc7fffffffffffffffffffffffffffffffffffffffffffffffffffffffffffffffff826200037d565b620003c886836200037d565b95508019841693508086168417925050509392505050565b6000819050919050565b6000819050919050565b6000620004156200040f6200040984620003e0565b620003ea565b620003e0565b9050919050565b6000819050919050565b6200043183620003f4565b6200044962000440826200041c565b8484546200038a565b825550505050565b600090565b6200046062000451565b6200046d81848462000426565b505050565b5b8181101562000495576200048960008262000456565b60018101905062000473565b5050565b601f821115620004e457620004ae8162000358565b620004b9846200036d565b81016020851015620004c9578190505b620004e1620004d8856200036d565b83018262000472565b50505b505050565b600082821c905092915050565b60006200050960001984600802620004e9565b1980831691505092915050565b6000620005248383620004f6565b9150826002028217905092915050565b6200053f82620002ba565b67ffffffffffffffff8111156200055b576200055a620002c5565b5b62000567825462000323565b6200057482828562000499565b600060209050601f831160018114620005ac576000841562000597578287015190505b620005a3858262000516565b86555062000613565b601f198416620005bc8662000358565b60005b82811015620005e657848901518255600182019150602085019450602081019050620005bf565b8683101562000606578489015162000602601f891682620004f6565b8355505b6001600288020188555050505b505050505050565b620006268162000243565b82525050565b60006020820190506200064360008301846200061b565b92915050565b613e5980620006596000396000f3fe6080604052600436106101d85760003560e01c80636352211e11610102578063aa4c4cc111610095578063e985e9c511610064578063e985e9c5146106ec578063f2fde38b14610729578063f5ce45ee14610752578063fca846dc1461077b576101d8565b8063aa4c4cc114610620578063af296da114610649578063b88d4fde14610686578063c87b56dd146106af576101d8565b80638db03a78116100d15780638db03a781461056657806395d89b411461058f5780639cb04aef146105ba578063a22cb465146105f7576101d8565b80636352211e146104aa57806370a08231146104e7578063715018a6146105245780638da5cb5b1461053b576101d8565b806323b872dd1161017a57806342842e0e1161014957806342842e0e146103e45780634768d4ef1461040d5780634e7497fc146104515780635c300eba1461048e576101d8565b806323b872dd1461033c5780632a5b1451146103655780633ccfd60b146103905780633d092b3d146103a7576101d8565b8063095ea7b3116101b6578063095ea7b3146102825780630ef7ec74146102ab57806318160ddd146102e857806320a4deae14610313576101d8565b806301ffc9a7146101dd57806306fdde031461021a578063081812fc14610245575b600080fd5b3480156101e957600080fd5b5061020460048036038101906101ff9190612b51565b6107a6565b6040516102119190612b99565b60405180910390f35b34801561022657600080fd5b5061022f610888565b60405161023c9190612c44565b60405180910390f35b34801561025157600080fd5b5061026c60048036038101906102679190612c9c565b61091a565b6040516102799190612d0a565b60405180910390f35b34801561028e57600080fd5b506102a960048036038101906102a49190612d51565b610936565b005b3480156102b757600080fd5b506102d260048036038101906102cd9190612c9c565b61094c565b6040516102df9190612e4f565b60405180910390f35b3480156102f457600080fd5b506102fd6109b7565b60405161030a9190612e80565b60405180910390f35b34801561031f57600080fd5b5061033a60048036038101906103359190612e9b565b6109bd565b005b34801561034857600080fd5b50610363600480360381019061035e9190612edb565b610af5565b005b34801561037157600080fd5b5061037a610bf7565b6040516103879190612e80565b60405180910390f35b34801561039c57600080fd5b506103a5610bfd565b005b3480156103b357600080fd5b506103ce60048036038101906103c99190612c9c565b610cbb565b6040516103db919061303d565b60405180910390f35b3480156103f057600080fd5b5061040b60048036038101906104069190612edb565b610f59565b005b34801561041957600080fd5b50610434600480360381019061042f9190612c9c565b610f79565b60405161044898979695949392919061305f565b60405180910390f35b34801561045d57600080fd5b5061047860048036038101906104739190612e9b565b6111e1565b6040516104859190612e80565b60405180910390f35b6104a860048036038101906104a39190612e9b565b611212565b005b3480156104b657600080fd5b506104d160048036038101906104cc9190612c9c565b611525565b6040516104de9190612d0a565b60405180910390f35b3480156104f357600080fd5b5061050e600480360381019061050991906130f9565b611537565b60405161051b9190612e80565b60405180910390f35b34801561053057600080fd5b506105396115f1565b005b34801561054757600080fd5b50610550611605565b60405161055d9190612d0a565b60405180910390f35b34801561057257600080fd5b5061058d60048036038101906105889190612c9c565b61162f565b005b34801561059b57600080fd5b506105a4611702565b6040516105b19190612c44565b60405180910390f35b3480156105c657600080fd5b506105e160048036038101906105dc9190613126565b611794565b6040516105ee9190612b99565b60405180910390f35b34801561060357600080fd5b5061061e60048036038101906106199190613192565b6117c3565b005b34801561062c57600080fd5b5061064760048036038101906106429190612e9b565b6117d9565b005b34801561065557600080fd5b50610670600480360381019061066b9190612e9b565b611852565b60405161067d9190612d0a565b60405180910390f35b34801561069257600080fd5b506106ad60048036038101906106a89190613307565b611894565b005b3480156106bb57600080fd5b506106d660048036038101906106d19190612c9c565b6118b1565b6040516106e39190612c44565b60405180910390f35b3480156106f857600080fd5b50610713600480360381019061070e919061338a565b61191a565b6040516107209190612b99565b60405180910390f35b34801561073557600080fd5b50610750600480360381019061074b91906130f9565b6119ae565b005b34801561075e57600080fd5b506107796004803603810190610774919061346b565b611a34565b005b34801561078757600080fd5b50610790611b75565b60405161079d9190612e80565b60405180910390f35b60007f80ac58cd000000000000000000000000000000000000000000000000000000007bffffffffffffffffffffffffffffffffffffffffffffffffffffffff1916827bffffffffffffffffffffffffffffffffffffffffffffffffffffffff1916148061087157507f5b5e139f000000000000000000000000000000000000000000000000000000007bffffffffffffffffffffffffffffffffffffffffffffffffffffffff1916827bffffffffffffffffffffffffffffffffffffffffffffffffffffffff1916145b80610881575061088082611b7b565b5b9050919050565b60606000805461089790613597565b80601f01602080910402602001604051908101604052809291908181526020018280546108c390613597565b80156109105780601f106108e557610100808354040283529160200191610910565b820191906000526020600020905b8154815290600101906020018083116108f357829003601f168201915b5050505050905090565b600061092582611be5565b5061092f82611c6d565b9050919050565b6109488282610943611caa565b611cb2565b5050565b6060600c60008381526020019081526020016000208054806020026020016040519081016040528092919081815260200182805480156109ab57602002820191906000526020600020905b815481526020019060010190808311610997575b50505050509050919050565b60085481565b6109c5611cc4565b600082141580156109d857506007548211155b610a17576040517f08c379a0000000000000000000000000000000000000000000000000000000008152600401610a0e90613614565b60405180910390fd5b61940b811115610a5c576040517f08c379a0000000000000000000000000000000000000000000000000000000008152600401610a5390613680565b60405180910390fd5b60096000838152602001908152602001600020600301546009600084815260200190815260200160002060040154610a9491906136cf565b811015610ad6576040517f08c379a0000000000000000000000000000000000000000000000000000000008152600401610acd90613775565b60405180910390fd5b8060096000848152602001908152602001600020600301819055505050565b600073ffffffffffffffffffffffffffffffffffffffff168273ffffffffffffffffffffffffffffffffffffffff1603610b675760006040517f64a0ae92000000000000000000000000000000000000000000000000000000008152600401610b5e9190612d0a565b60405180910390fd5b6000610b7b8383610b76611caa565b611d4b565b90508373ffffffffffffffffffffffffffffffffffffffff168173ffffffffffffffffffffffffffffffffffffffff1614610bf1578382826040517f64283d7b000000000000000000000000000000000000000000000000000000008152600401610be893929190613795565b60405180910390fd5b50505050565b60075481565b610c05611cc4565b6000610c0f611605565b73ffffffffffffffffffffffffffffffffffffffff1647604051610c32906137fd565b60006040518083038185875af1925050503d8060008114610c6f576040519150601f19603f3d011682016040523d82523d6000602084013e610c74565b606091505b5050905080610cb8576040517f08c379a0000000000000000000000000000000000000000000000000000000008152600401610caf9061385e565b60405180910390fd5b50565b610cc3612a43565b600960008381526020019081526020016000206040518061010001604052908160008201548152602001600182018054610cfc90613597565b80601f0160208091040260200160405190810160405280929190818152602001828054610d2890613597565b8015610d755780601f10610d4a57610100808354040283529160200191610d75565b820191906000526020600020905b815481529060010190602001808311610d5857829003601f168201915b50505050508152602001600282015481526020016003820154815260200160048201548152602001600582018054610dac90613597565b80601f0160208091040260200160405190810160405280929190818152602001828054610dd890613597565b8015610e255780601f10610dfa57610100808354040283529160200191610e25565b820191906000526020600020905b815481529060010190602001808311610e0857829003601f168201915b50505050508152602001600682018054610e3e90613597565b80601f0160208091040260200160405190810160405280929190818152602001828054610e6a90613597565b8015610eb75780601f10610e8c57610100808354040283529160200191610eb7565b820191906000526020600020905b815481529060010190602001808311610e9a57829003601f168201915b50505050508152602001600782018054610ed090613597565b80601f0160208091040260200160405190810160405280929190818152602001828054610efc90613597565b8015610f495780601f10610f1e57610100808354040283529160200191610f49565b820191906000526020600020905b815481529060010190602001808311610f2c57829003601f168201915b5050505050815250509050919050565b610f7483838360405180602001604052806000815250611894565b505050565b6009602052806000526040600020600091509050806000015490806001018054610fa290613597565b80601f0160208091040260200160405190810160405280929190818152602001828054610fce90613597565b801561101b5780601f10610ff05761010080835404028352916020019161101b565b820191906000526020600020905b815481529060010190602001808311610ffe57829003601f168201915b50505050509080600201549080600301549080600401549080600501805461104290613597565b80601f016020809104026020016040519081016040528092919081815260200182805461106e90613597565b80156110bb5780601f10611090576101008083540402835291602001916110bb565b820191906000526020600020905b81548152906001019060200180831161109e57829003601f168201915b5050505050908060060180546110d090613597565b80601f01602080910402602001604051908101604052809291908181526020018280546110fc90613597565b80156111495780601f1061111e57610100808354040283529160200191611149565b820191906000526020600020905b81548152906001019060200180831161112c57829003601f168201915b50505050509080600701805461115e90613597565b80601f016020809104026020016040519081016040528092919081815260200182805461118a90613597565b80156111d75780601f106111ac576101008083540402835291602001916111d7565b820191906000526020600020905b8154815290600101906020018083116111ba57829003601f168201915b5050505050905088565b600c60205281600052604060002081815481106111fd57600080fd5b90600052602060002001600091509150505481565b6000821415801561122557506007548211155b611264576040517f08c379a000000000000000000000000000000000000000000000000000000000815260040161125b90613614565b60405180910390fd5b60096000838152602001908152602001600020600201543410156112bd576040517f08c379a00000000000000000000000000000000000000000000000000000000081526004016112b4906138ca565b60405180910390fd5b600073ffffffffffffffffffffffffffffffffffffffff16600b6000848152602001908152602001600020600083815260200190815260200160002060009054906101000a900473ffffffffffffffffffffffffffffffffffffffff1673ffffffffffffffffffffffffffffffffffffffff1614611370576040517f08c379a000000000000000000000000000000000000000000000000000000000815260040161136790613936565b60405180910390fd5b60096000838152602001908152602001600020600401548111156113c9576040517f08c379a00000000000000000000000000000000000000000000000000000000081526004016113c0906139a2565b60405180910390fd5b60016009600084815260200190815260200160002060030160008282546113f091906136cf565b925050819055506001600a600084815260200190815260200160002060003373ffffffffffffffffffffffffffffffffffffffff1673ffffffffffffffffffffffffffffffffffffffff16815260200190815260200160002060006101000a81548160ff02191690831515021790555033600b6000848152602001908152602001600020600083815260200190815260200160002060006101000a81548173ffffffffffffffffffffffffffffffffffffffff021916908373ffffffffffffffffffffffffffffffffffffffff160217905550600c600083815260200190815260200160002081908060018154018082558091505060019003906000526020600020016000909190919091505560086000815480929190611510906139c2565b919050555061152133600854611f65565b5050565b600061153082611be5565b9050919050565b60008073ffffffffffffffffffffffffffffffffffffffff168273ffffffffffffffffffffffffffffffffffffffff16036115aa5760006040517f89c62b640000000000000000000000000000000000000000000000000000000081526004016115a19190612d0a565b60405180910390fd5b600360008373ffffffffffffffffffffffffffffffffffffffff1673ffffffffffffffffffffffffffffffffffffffff168152602001908152602001600020549050919050565b6115f9611cc4565b6116036000611f83565b565b6000600660009054906101000a900473ffffffffffffffffffffffffffffffffffffffff16905090565b611637611cc4565b6000811415801561164a57506007548111155b611689576040517f08c379a000000000000000000000000000000000000000000000000000000000815260040161168090613614565b60405180910390fd5b600960008281526020019081526020016000206000808201600090556001820160006116b59190612a88565b6002820160009055600382016000905560048201600090556005820160006116dd9190612a88565b6006820160006116ed9190612a88565b6007820160006116fd9190612a88565b505050565b60606001805461171190613597565b80601f016020809104026020016040519081016040528092919081815260200182805461173d90613597565b801561178a5780601f1061175f5761010080835404028352916020019161178a565b820191906000526020600020905b81548152906001019060200180831161176d57829003601f168201915b5050505050905090565b600a6020528160005260406000206020528060005260406000206000915091509054906101000a900460ff1681565b6117d56117ce611caa565b8383612049565b5050565b6117e1611cc4565b600082141580156117f457506007548211155b611833576040517f08c379a000000000000000000000000000000000000000000000000000000000815260040161182a90613614565b60405180910390fd5b8060096000848152602001908152602001600020600201819055505050565b600b6020528160005260406000206020528060005260406000206000915091509054906101000a900473ffffffffffffffffffffffffffffffffffffffff1681565b61189f848484610af5565b6118ab848484846121b8565b50505050565b60606118bc82611be5565b5060006118c761236f565b905060008151116118e75760405180602001604052806000815250611912565b806118f184612386565b604051602001611902929190613a46565b6040516020818303038152906040525b915050919050565b6000600560008473ffffffffffffffffffffffffffffffffffffffff1673ffffffffffffffffffffffffffffffffffffffff16815260200190815260200160002060008373ffffffffffffffffffffffffffffffffffffffff1673ffffffffffffffffffffffffffffffffffffffff16815260200190815260200160002060009054906101000a900460ff16905092915050565b6119b6611cc4565b600073ffffffffffffffffffffffffffffffffffffffff168173ffffffffffffffffffffffffffffffffffffffff1603611a285760006040517f1e4fbdf7000000000000000000000000000000000000000000000000000000008152600401611a1f9190612d0a565b60405180910390fd5b611a3181611f83565b50565b611a3c611cc4565b61940b841115611a81576040517f08c379a0000000000000000000000000000000000000000000000000000000008152600401611a7890613680565b60405180910390fd5b60076000815480929190611a94906139c2565b9190505550604051806101000160405280600754815260200187815260200186815260200185815260200185815260200184815260200183815260200182815250600960006007548152602001908152602001600020600082015181600001556020820151816001019081611b099190613c16565b5060408201518160020155606082015181600301556080820151816004015560a0820151816005019081611b3d9190613c16565b5060c0820151816006019081611b539190613c16565b5060e0820151816007019081611b699190613c16565b50905050505050505050565b61940b81565b60007f01ffc9a7000000000000000000000000000000000000000000000000000000007bffffffffffffffffffffffffffffffffffffffffffffffffffffffff1916827bffffffffffffffffffffffffffffffffffffffffffffffffffffffff1916149050919050565b600080611bf183612454565b9050600073ffffffffffffffffffffffffffffffffffffffff168173ffffffffffffffffffffffffffffffffffffffff1603611c6457826040517f7e273289000000000000000000000000000000000000000000000000000000008152600401611c5b9190612e80565b60405180910390fd5b80915050919050565b60006004600083815260200190815260200160002060009054906101000a900473ffffffffffffffffffffffffffffffffffffffff169050919050565b600033905090565b611cbf8383836001612491565b505050565b611ccc611caa565b73ffffffffffffffffffffffffffffffffffffffff16611cea611605565b73ffffffffffffffffffffffffffffffffffffffff1614611d4957611d0d611caa565b6040517f118cdaa7000000000000000000000000000000000000000000000000000000008152600401611d409190612d0a565b60405180910390fd5b565b600080611d5784612454565b9050600073ffffffffffffffffffffffffffffffffffffffff168373ffffffffffffffffffffffffffffffffffffffff1614611d9957611d98818486612656565b5b600073ffffffffffffffffffffffffffffffffffffffff168173ffffffffffffffffffffffffffffffffffffffff1614611e2a57611ddb600085600080612491565b6001600360008373ffffffffffffffffffffffffffffffffffffffff1673ffffffffffffffffffffffffffffffffffffffff168152602001908152602001600020600082825403925050819055505b600073ffffffffffffffffffffffffffffffffffffffff168573ffffffffffffffffffffffffffffffffffffffff1614611ead576001600360008773ffffffffffffffffffffffffffffffffffffffff1673ffffffffffffffffffffffffffffffffffffffff168152602001908152602001600020600082825401925050819055505b846002600086815260200190815260200160002060006101000a81548173ffffffffffffffffffffffffffffffffffffffff021916908373ffffffffffffffffffffffffffffffffffffffff160217905550838573ffffffffffffffffffffffffffffffffffffffff168273ffffffffffffffffffffffffffffffffffffffff167fddf252ad1be2c89b69c2b068fc378daa952ba7f163c4a11628f55a4df523b3ef60405160405180910390a4809150509392505050565b611f7f82826040518060200160405280600081525061271a565b5050565b6000600660009054906101000a900473ffffffffffffffffffffffffffffffffffffffff16905081600660006101000a81548173ffffffffffffffffffffffffffffffffffffffff021916908373ffffffffffffffffffffffffffffffffffffffff1602179055508173ffffffffffffffffffffffffffffffffffffffff168173ffffffffffffffffffffffffffffffffffffffff167f8be0079c531659141344cd1fd0a4f28419497f9722a3daafe3b4186f6b6457e060405160405180910390a35050565b600073ffffffffffffffffffffffffffffffffffffffff168273ffffffffffffffffffffffffffffffffffffffff16036120ba57816040517f5b08ba180000000000000000000000000000000000000000000000000000000081526004016120b19190612d0a565b60405180910390fd5b80600560008573ffffffffffffffffffffffffffffffffffffffff1673ffffffffffffffffffffffffffffffffffffffff16815260200190815260200160002060008473ffffffffffffffffffffffffffffffffffffffff1673ffffffffffffffffffffffffffffffffffffffff16815260200190815260200160002060006101000a81548160ff0219169083151502179055508173ffffffffffffffffffffffffffffffffffffffff168373ffffffffffffffffffffffffffffffffffffffff167f17307eab39ab6107e8899845ad3d59bd9653f200f220920489ca2b5937696c31836040516121ab9190612b99565b60405180910390a3505050565b60008373ffffffffffffffffffffffffffffffffffffffff163b1115612369578273ffffffffffffffffffffffffffffffffffffffff1663150b7a026121fc611caa565b8685856040518563ffffffff1660e01b815260040161221e9493929190613d3d565b6020604051808303816000875af192505050801561225a57506040513d601f19601f820116820180604052508101906122579190613d9e565b60015b6122de573d806000811461228a576040519150601f19603f3d011682016040523d82523d6000602084013e61228f565b606091505b5060008151036122d657836040517f64a0ae920000000000000000000000000000000000000000000000000000000081526004016122cd9190612d0a565b60405180910390fd5b805181602001fd5b63150b7a0260e01b7bffffffffffffffffffffffffffffffffffffffffffffffffffffffff1916817bffffffffffffffffffffffffffffffffffffffffffffffffffffffff19161461236757836040517f64a0ae9200000000000000000000000000000000000000000000000000000000815260040161235e9190612d0a565b60405180910390fd5b505b50505050565b606060405180602001604052806000815250905090565b60606000600161239584612736565b01905060008167ffffffffffffffff8111156123b4576123b36131dc565b5b6040519080825280601f01601f1916602001820160405280156123e65781602001600182028036833780820191505090505b509050600082602001820190505b600115612449578080600190039150507f3031323334353637383961626364656600000000000000000000000000000000600a86061a8153600a858161243d5761243c613dcb565b5b049450600085036123f4575b819350505050919050565b60006002600083815260200190815260200160002060009054906101000a900473ffffffffffffffffffffffffffffffffffffffff169050919050565b80806124ca5750600073ffffffffffffffffffffffffffffffffffffffff168273ffffffffffffffffffffffffffffffffffffffff1614155b156125fe5760006124da84611be5565b9050600073ffffffffffffffffffffffffffffffffffffffff168373ffffffffffffffffffffffffffffffffffffffff161415801561254557508273ffffffffffffffffffffffffffffffffffffffff168173ffffffffffffffffffffffffffffffffffffffff1614155b80156125585750612556818461191a565b155b1561259a57826040517fa9fbf51f0000000000000000000000000000000000000000000000000000000081526004016125919190612d0a565b60405180910390fd5b81156125fc57838573ffffffffffffffffffffffffffffffffffffffff168273ffffffffffffffffffffffffffffffffffffffff167f8c5be1e5ebec7d5bd14f71427d1e84f3dd0314c0f7b2291e5b200ac8c7c3b92560405160405180910390a45b505b836004600085815260200190815260200160002060006101000a81548173ffffffffffffffffffffffffffffffffffffffff021916908373ffffffffffffffffffffffffffffffffffffffff16021790555050505050565b612661838383612889565b61271557600073ffffffffffffffffffffffffffffffffffffffff168373ffffffffffffffffffffffffffffffffffffffff16036126d657806040517f7e2732890000000000000000000000000000000000000000000000000000000081526004016126cd9190612e80565b60405180910390fd5b81816040517f177e802f00000000000000000000000000000000000000000000000000000000815260040161270c929190613dfa565b60405180910390fd5b505050565b612724838361294a565b61273160008484846121b8565b505050565b600080600090507a184f03e93ff9f4daa797ed6e38ed64bf6a1f0100000000000000008310612794577a184f03e93ff9f4daa797ed6e38ed64bf6a1f010000000000000000838161278a57612789613dcb565b5b0492506040810190505b6d04ee2d6d415b85acef810000000083106127d1576d04ee2d6d415b85acef810000000083816127c7576127c6613dcb565b5b0492506020810190505b662386f26fc10000831061280057662386f26fc1000083816127f6576127f5613dcb565b5b0492506010810190505b6305f5e1008310612829576305f5e100838161281f5761281e613dcb565b5b0492506008810190505b612710831061284e57612710838161284457612843613dcb565b5b0492506004810190505b60648310612871576064838161286757612866613dcb565b5b0492506002810190505b600a8310612880576001810190505b80915050919050565b60008073ffffffffffffffffffffffffffffffffffffffff168373ffffffffffffffffffffffffffffffffffffffff161415801561294157508273ffffffffffffffffffffffffffffffffffffffff168473ffffffffffffffffffffffffffffffffffffffff1614806129025750612901848461191a565b5b8061294057508273ffffffffffffffffffffffffffffffffffffffff1661292883611c6d565b73ffffffffffffffffffffffffffffffffffffffff16145b5b90509392505050565b600073ffffffffffffffffffffffffffffffffffffffff168273ffffffffffffffffffffffffffffffffffffffff16036129bc5760006040517f64a0ae920000000000000000000000000000000000000000000000000000000081526004016129b39190612d0a565b60405180910390fd5b60006129ca83836000611d4b565b9050600073ffffffffffffffffffffffffffffffffffffffff168173ffffffffffffffffffffffffffffffffffffffff1614612a3e5760006040517f73c6ac6e000000000000000000000000000000000000000000000000000000008152600401612a359190612d0a565b60405180910390fd5b505050565b60405180610100016040528060008152602001606081526020016000815260200160008152602001600081526020016060815260200160608152602001606081525090565b508054612a9490613597565b6000825580601f10612aa65750612ac5565b601f016020900490600052602060002090810190612ac49190612ac8565b5b50565b5b80821115612ae1576000816000905550600101612ac9565b5090565b6000604051905090565b600080fd5b600080fd5b60007fffffffff0000000000000000000000000000000000000000000000000000000082169050919050565b612b2e81612af9565b8114612b3957600080fd5b50565b600081359050612b4b81612b25565b92915050565b600060208284031215612b6757612b66612aef565b5b6000612b7584828501612b3c565b91505092915050565b60008115159050919050565b612b9381612b7e565b82525050565b6000602082019050612bae6000830184612b8a565b92915050565b600081519050919050565b600082825260208201905092915050565b60005b83811015612bee578082015181840152602081019050612bd3565b60008484015250505050565b6000601f19601f8301169050919050565b6000612c1682612bb4565b612c208185612bbf565b9350612c30818560208601612bd0565b612c3981612bfa565b840191505092915050565b60006020820190508181036000830152612c5e8184612c0b565b905092915050565b6000819050919050565b612c7981612c66565b8114612c8457600080fd5b50565b600081359050612c9681612c70565b92915050565b600060208284031215612cb257612cb1612aef565b5b6000612cc084828501612c87565b91505092915050565b600073ffffffffffffffffffffffffffffffffffffffff82169050919050565b6000612cf482612cc9565b9050919050565b612d0481612ce9565b82525050565b6000602082019050612d1f6000830184612cfb565b92915050565b612d2e81612ce9565b8114612d3957600080fd5b50565b600081359050612d4b81612d25565b92915050565b60008060408385031215612d6857612d67612aef565b5b6000612d7685828601612d3c565b9250506020612d8785828601612c87565b9150509250929050565b600081519050919050565b600082825260208201905092915050565b6000819050602082019050919050565b612dc681612c66565b82525050565b6000612dd88383612dbd565b60208301905092915050565b6000602082019050919050565b6000612dfc82612d91565b612e068185612d9c565b9350612e1183612dad565b8060005b83811015612e42578151612e298882612dcc565b9750612e3483612de4565b925050600181019050612e15565b5085935050505092915050565b60006020820190508181036000830152612e698184612df1565b905092915050565b612e7a81612c66565b82525050565b6000602082019050612e956000830184612e71565b92915050565b60008060408385031215612eb257612eb1612aef565b5b6000612ec085828601612c87565b9250506020612ed185828601612c87565b9150509250929050565b600080600060608486031215612ef457612ef3612aef565b5b6000612f0286828701612d3c565b9350506020612f1386828701612d3c565b9250506040612f2486828701612c87565b9150509250925092565b600082825260208201905092915050565b6000612f4a82612bb4565b612f548185612f2e565b9350612f64818560208601612bd0565b612f6d81612bfa565b840191505092915050565b600061010083016000830151612f916000860182612dbd565b5060208301518482036020860152612fa98282612f3f565b9150506040830151612fbe6040860182612dbd565b506060830151612fd16060860182612dbd565b506080830151612fe46080860182612dbd565b5060a083015184820360a0860152612ffc8282612f3f565b91505060c083015184820360c08601526130168282612f3f565b91505060e083015184820360e08601526130308282612f3f565b9150508091505092915050565b600060208201905081810360008301526130578184612f78565b905092915050565b600061010082019050613075600083018b612e71565b8181036020830152613087818a612c0b565b90506130966040830189612e71565b6130a36060830188612e71565b6130b06080830187612e71565b81810360a08301526130c28186612c0b565b905081810360c08301526130d68185612c0b565b905081810360e08301526130ea8184612c0b565b90509998505050505050505050565b60006020828403121561310f5761310e612aef565b5b600061311d84828501612d3c565b91505092915050565b6000806040838503121561313d5761313c612aef565b5b600061314b85828601612c87565b925050602061315c85828601612d3c565b9150509250929050565b61316f81612b7e565b811461317a57600080fd5b50565b60008135905061318c81613166565b92915050565b600080604083850312156131a9576131a8612aef565b5b60006131b785828601612d3c565b92505060206131c88582860161317d565b9150509250929050565b600080fd5b600080fd5b7f4e487b7100000000000000000000000000000000000000000000000000000000600052604160045260246000fd5b61321482612bfa565b810181811067ffffffffffffffff82111715613233576132326131dc565b5b80604052505050565b6000613246612ae5565b9050613252828261320b565b919050565b600067ffffffffffffffff821115613272576132716131dc565b5b61327b82612bfa565b9050602081019050919050565b82818337600083830152505050565b60006132aa6132a584613257565b61323c565b9050828152602081018484840111156132c6576132c56131d7565b5b6132d1848285613288565b509392505050565b600082601f8301126132ee576132ed6131d2565b5b81356132fe848260208601613297565b91505092915050565b6000806000806080858703121561332157613320612aef565b5b600061332f87828801612d3c565b945050602061334087828801612d3c565b935050604061335187828801612c87565b925050606085013567ffffffffffffffff81111561337257613371612af4565b5b61337e878288016132d9565b91505092959194509250565b600080604083850312156133a1576133a0612aef565b5b60006133af85828601612d3c565b92505060206133c085828601612d3c565b9150509250929050565b600067ffffffffffffffff8211156133e5576133e46131dc565b5b6133ee82612bfa565b9050602081019050919050565b600061340e613409846133ca565b61323c565b90508281526020810184848401111561342a576134296131d7565b5b613435848285613288565b509392505050565b600082601f830112613452576134516131d2565b5b81356134628482602086016133fb565b91505092915050565b60008060008060008060c0878903121561348857613487612aef565b5b600087013567ffffffffffffffff8111156134a6576134a5612af4565b5b6134b289828a0161343d565b96505060206134c389828a01612c87565b95505060406134d489828a01612c87565b945050606087013567ffffffffffffffff8111156134f5576134f4612af4565b5b61350189828a0161343d565b935050608087013567ffffffffffffffff81111561352257613521612af4565b5b61352e89828a0161343d565b92505060a087013567ffffffffffffffff81111561354f5761354e612af4565b5b61355b89828a0161343d565b9150509295509295509295565b7f4e487b7100000000000000000000000000000000000000000000000000000000600052602260045260246000fd5b600060028204905060018216806135af57607f821691505b6020821081036135c2576135c1613568565b5b50919050565b7f496e76616c6964206d6174636820494400000000000000000000000000000000600082015250565b60006135fe601083612bbf565b9150613609826135c8565b602082019050919050565b6000602082019050818103600083015261362d816135f1565b9050919050565b7f43616e6e6f7420657863656564207374616469756d2063617061636974790000600082015250565b600061366a601e83612bbf565b915061367582613634565b602082019050919050565b600060208201905081810360008301526136998161365d565b9050919050565b7f4e487b7100000000000000000000000000000000000000000000000000000000600052601160045260246000fd5b60006136da82612c66565b91506136e583612c66565b92508282039050818111156136fd576136fc6136a0565b5b92915050565b7f43616e6e6f7420736574206c657373207469636b657473207468616e20616c7260008201527f6561647920736f6c640000000000000000000000000000000000000000000000602082015250565b600061375f602983612bbf565b915061376a82613703565b604082019050919050565b6000602082019050818103600083015261378e81613752565b9050919050565b60006060820190506137aa6000830186612cfb565b6137b76020830185612e71565b6137c46040830184612cfb565b949350505050565b600081905092915050565b50565b60006137e76000836137cc565b91506137f2826137d7565b600082019050919050565b6000613808826137da565b9150819050919050565b7f5769746864726177616c206661696c6564000000000000000000000000000000600082015250565b6000613848601183612bbf565b915061385382613812565b602082019050919050565b600060208201905081810360008301526138778161383b565b9050919050565b7f496e636f727265637420616d6f756e742073656e740000000000000000000000600082015250565b60006138b4601583612bbf565b91506138bf8261387e565b602082019050919050565b600060208201905081810360008301526138e3816138a7565b9050919050565b7f5365617420616c72656164792074616b656e0000000000000000000000000000600082015250565b6000613920601283612bbf565b915061392b826138ea565b602082019050919050565b6000602082019050818103600083015261394f81613913565b9050919050565b7f496e76616c69642073656174206e756d62657200000000000000000000000000600082015250565b600061398c601383612bbf565b915061399782613956565b602082019050919050565b600060208201905081810360008301526139bb8161397f565b9050919050565b60006139cd82612c66565b91507fffffffffffffffffffffffffffffffffffffffffffffffffffffffffffffffff82036139ff576139fe6136a0565b5b600182019050919050565b600081905092915050565b6000613a2082612bb4565b613a2a8185613a0a565b9350613a3a818560208601612bd0565b80840191505092915050565b6000613a528285613a15565b9150613a5e8284613a15565b91508190509392505050565b60008190508160005260206000209050919050565b60006020601f8301049050919050565b600082821b905092915050565b600060088302613acc7fffffffffffffffffffffffffffffffffffffffffffffffffffffffffffffffff82613a8f565b613ad68683613a8f565b95508019841693508086168417925050509392505050565b6000819050919050565b6000613b13613b0e613b0984612c66565b613aee565b612c66565b9050919050565b6000819050919050565b613b2d83613af8565b613b41613b3982613b1a565b848454613a9c565b825550505050565b600090565b613b56613b49565b613b61818484613b24565b505050565b5b81811015613b8557613b7a600082613b4e565b600181019050613b67565b5050565b601f821115613bca57613b9b81613a6a565b613ba484613a7f565b81016020851015613bb3578190505b613bc7613bbf85613a7f565b830182613b66565b50505b505050565b600082821c905092915050565b6000613bed60001984600802613bcf565b1980831691505092915050565b6000613c068383613bdc565b9150826002028217905092915050565b613c1f82612bb4565b67ffffffffffffffff811115613c3857613c376131dc565b5b613c428254613597565b613c4d828285613b89565b600060209050601f831160018114613c805760008415613c6e578287015190505b613c788582613bfa565b865550613ce0565b601f198416613c8e86613a6a565b60005b82811015613cb657848901518255600182019150602085019450602081019050613c91565b86831015613cd35784890151613ccf601f891682613bdc565b8355505b6001600288020188555050505b505050505050565b600081519050919050565b600082825260208201905092915050565b6000613d0f82613ce8565b613d198185613cf3565b9350613d29818560208601612bd0565b613d3281612bfa565b840191505092915050565b6000608082019050613d526000830187612cfb565b613d5f6020830186612cfb565b613d6c6040830185612e71565b8181036060830152613d7e8184613d04565b905095945050505050565b600081519050613d9881612b25565b92915050565b600060208284031215613db457613db3612aef565b5b6000613dc284828501613d89565b91505092915050565b7f4e487b7100000000000000000000000000000000000000000000000000000000600052601260045260246000fd5b6000604082019050613e0f6000830185612cfb565b613e1c6020830184612e71565b939250505056fea26469706673582212205b2dffedd937bca3150b8652f9cadc8a79d11b2ee0a77254170605e81c42ff3364736f6c63430008180033",
  "linkReferences": {},
  "deployedLinkReferences": {}
}