{
  "_format": "hh-sol-artifact-1",
  "contractName": "RedTickets",
  "sourceName": "contracts/RedTickets.sol",
  "abi": [
    {
      "inputs": [
        {
          "internalType": "address",
          "name": "initialOwner",
          "type": "address"
        }
      ],
      "stateMutability": "nonpayable",
      "type": "constructor"
    },
    {
      "inputs": [
        {
          "internalType": "address",
          "name": "sender",
          "type": "address"
        },
        {
          "internalType": "uint256",
          "name": "tokenId",
          "type": "uint256"
        },
        {
          "internalType": "address",
          "name": "owner",
          "type": "address"
        }
      ],
      "name": "ERC721IncorrectOwner",
      "type": "error"
    },
    {
      "inputs": [
        {
          "internalType": "address",
          "name": "operator",
          "type": "address"
        },
        {
          "internalType": "uint256",
          "name": "tokenId",
          "type": "uint256"
        }
      ],
      "name": "ERC721InsufficientApproval",
      "type": "error"
    },
    {
      "inputs": [
        {
          "internalType": "address",
          "name": "approver",
          "type": "address"
        }
      ],
      "name": "ERC721InvalidApprover",
      "type": "error"
    },
    {
      "inputs": [
        {
          "internalType": "address",
          "name": "operator",
          "type": "address"
        }
      ],
      "name": "ERC721InvalidOperator",
      "type": "error"
    },
    {
      "inputs": [
        {
          "internalType": "address",
          "name": "owner",
          "type": "address"
        }
      ],
      "name": "ERC721InvalidOwner",
      "type": "error"
    },
    {
      "inputs": [
        {
          "internalType": "address",
          "name": "receiver",
          "type": "address"
        }
      ],
      "name": "ERC721InvalidReceiver",
      "type": "error"
    },
    {
      "inputs": [
        {
          "internalType": "address",
          "name": "sender",
          "type": "address"
        }
      ],
      "name": "ERC721InvalidSender",
      "type": "error"
    },
    {
      "inputs": [
        {
          "internalType": "uint256",
          "name": "tokenId",
          "type": "uint256"
        }
      ],
      "name": "ERC721NonexistentToken",
      "type": "error"
    },
    {
      "inputs": [
        {
          "internalType": "address",
          "name": "owner",
          "type": "address"
        }
      ],
      "name": "OwnableInvalidOwner",
      "type": "error"
    },
    {
      "inputs": [
        {
          "internalType": "address",
          "name": "account",
          "type": "address"
        }
      ],
      "name": "OwnableUnauthorizedAccount",
      "type": "error"
    },
    {
      "anonymous": false,
      "inputs": [
        {
          "indexed": true,
          "internalType": "address",
          "name": "owner",
          "type": "address"
        },
        {
          "indexed": true,
          "internalType": "address",
          "name": "approved",
          "type": "address"
        },
        {
          "indexed": true,
          "internalType": "uint256",
          "name": "tokenId",
          "type": "uint256"
        }
      ],
      "name": "Approval",
      "type": "event"
    },
    {
      "anonymous": false,
      "inputs": [
        {
          "indexed": true,
          "internalType": "address",
          "name": "owner",
          "type": "address"
        },
        {
          "indexed": true,
          "internalType": "address",
          "name": "operator",
          "type": "address"
        },
        {
          "indexed": false,
          "internalType": "bool",
          "name": "approved",
          "type": "bool"
        }
      ],
      "name": "ApprovalForAll",
      "type": "event"
    },
    {
      "anonymous": false,
      "inputs": [
        {
          "indexed": false,
          "internalType": "uint256",
          "name": "id",
          "type": "uint256"
        },
        {
          "indexed": false,
          "internalType": "string",
          "name": "name",
          "type": "string"
        },
        {
          "indexed": false,
          "internalType": "uint256",
          "name": "price",
          "type": "uint256"
        },
        {
          "indexed": false,
          "internalType": "uint256",
          "name": "maxTickets",
          "type": "uint256"
        },
        {
          "indexed": false,
          "internalType": "string",
          "name": "date",
          "type": "string"
        },
        {
          "indexed": false,
          "internalType": "string",
          "name": "time",
          "type": "string"
        },
        {
          "indexed": false,
          "internalType": "string",
          "name": "location",
          "type": "string"
        }
      ],
      "name": "MatchListed",
      "type": "event"
    },
    {
      "anonymous": false,
      "inputs": [
        {
          "indexed": false,
          "internalType": "uint256",
          "name": "id",
          "type": "uint256"
        }
      ],
      "name": "MatchRemoved",
      "type": "event"
    },
    {
      "anonymous": false,
      "inputs": [
        {
          "indexed": true,
          "internalType": "address",
          "name": "previousOwner",
          "type": "address"
        },
        {
          "indexed": true,
          "internalType": "address",
          "name": "newOwner",
          "type": "address"
        }
      ],
      "name": "OwnershipTransferred",
      "type": "event"
    },
    {
      "anonymous": false,
      "inputs": [
        {
          "indexed": false,
          "internalType": "uint256",
          "name": "matchId",
          "type": "uint256"
        },
        {
          "indexed": false,
          "internalType": "uint256",
          "name": "seat",
          "type": "uint256"
        },
        {
          "indexed": false,
          "internalType": "address",
          "name": "buyer",
          "type": "address"
        }
      ],
      "name": "TicketMinted",
      "type": "event"
    },
    {
      "anonymous": false,
      "inputs": [
        {
          "indexed": false,
          "internalType": "uint256",
          "name": "matchId",
          "type": "uint256"
        },
        {
          "indexed": false,
          "internalType": "uint256",
          "name": "newPrice",
          "type": "uint256"
        }
      ],
      "name": "TicketPriceSet",
      "type": "event"
    },
    {
      "anonymous": false,
      "inputs": [
        {
          "indexed": false,
          "internalType": "uint256",
          "name": "matchId",
          "type": "uint256"
        },
        {
          "indexed": false,
          "internalType": "uint256",
          "name": "newTickets",
          "type": "uint256"
        }
      ],
      "name": "TicketsForSaleSet",
      "type": "event"
    },
    {
      "anonymous": false,
      "inputs": [
        {
          "indexed": true,
          "internalType": "address",
          "name": "from",
          "type": "address"
        },
        {
          "indexed": true,
          "internalType": "address",
          "name": "to",
          "type": "address"
        },
        {
          "indexed": true,
          "internalType": "uint256",
          "name": "tokenId",
          "type": "uint256"
        }
      ],
      "name": "Transfer",
      "type": "event"
    },
    {
      "inputs": [],
      "name": "MAX_TICKETS",
      "outputs": [
        {
          "internalType": "uint256",
          "name": "",
          "type": "uint256"
        }
      ],
      "stateMutability": "view",
      "type": "function"
    },
    {
      "inputs": [
        {
          "internalType": "address",
          "name": "to",
          "type": "address"
        },
        {
          "internalType": "uint256",
          "name": "tokenId",
          "type": "uint256"
        }
      ],
      "name": "approve",
      "outputs": [],
      "stateMutability": "nonpayable",
      "type": "function"
    },
    {
      "inputs": [
        {
          "internalType": "address",
          "name": "owner",
          "type": "address"
        }
      ],
      "name": "balanceOf",
      "outputs": [
        {
          "internalType": "uint256",
          "name": "",
          "type": "uint256"
        }
      ],
      "stateMutability": "view",
      "type": "function"
    },
    {
      "inputs": [
        {
          "internalType": "uint256",
          "name": "tokenId",
          "type": "uint256"
        }
      ],
      "name": "getApproved",
      "outputs": [
        {
          "internalType": "address",
          "name": "",
          "type": "address"
        }
      ],
      "stateMutability": "view",
      "type": "function"
    },
    {
      "inputs": [
        {
          "internalType": "uint256",
          "name": "_id",
          "type": "uint256"
        }
      ],
      "name": "getMatch",
      "outputs": [
        {
          "components": [
            {
              "internalType": "uint256",
              "name": "id",
              "type": "uint256"
            },
            {
              "internalType": "string",
              "name": "name",
              "type": "string"
            },
            {
              "internalType": "uint256",
              "name": "price",
              "type": "uint256"
            },
            {
              "internalType": "uint256",
              "name": "tickets",
              "type": "uint256"
            },
            {
              "internalType": "uint256",
              "name": "maxTickets",
              "type": "uint256"
            },
            {
              "internalType": "string",
              "name": "date",
              "type": "string"
            },
            {
              "internalType": "string",
              "name": "time",
              "type": "string"
            },
            {
              "internalType": "string",
              "name": "location",
              "type": "string"
            }
          ],
          "internalType": "struct RedTickets.Match",
          "name": "",
          "type": "tuple"
        }
      ],
      "stateMutability": "view",
      "type": "function"
    },
    {
      "inputs": [
        {
          "internalType": "uint256",
          "name": "_id",
          "type": "uint256"
        }
      ],
      "name": "getSeatsTaken",
      "outputs": [
        {
          "internalType": "uint256[]",
          "name": "",
          "type": "uint256[]"
        }
      ],
      "stateMutability": "view",
      "type": "function"
    },
    {
      "inputs": [
        {
          "internalType": "uint256",
          "name": "",
          "type": "uint256"
        },
        {
          "internalType": "address",
          "name": "",
          "type": "address"
        }
      ],
      "name": "hasBought",
      "outputs": [
        {
          "internalType": "bool",
          "name": "",
          "type": "bool"
        }
      ],
      "stateMutability": "view",
      "type": "function"
    },
    {
      "inputs": [
        {
          "internalType": "address",
          "name": "owner",
          "type": "address"
        },
        {
          "internalType": "address",
          "name": "operator",
          "type": "address"
        }
      ],
      "name": "isApprovedForAll",
      "outputs": [
        {
          "internalType": "bool",
          "name": "",
          "type": "bool"
        }
      ],
      "stateMutability": "view",
      "type": "function"
    },
    {
      "inputs": [
        {
          "internalType": "string",
          "name": "_name",
          "type": "string"
        },
        {
          "internalType": "uint256",
          "name": "_price",
          "type": "uint256"
        },
        {
          "internalType": "uint256",
          "name": "_maxTickets",
          "type": "uint256"
        },
        {
          "internalType": "string",
          "name": "_date",
          "type": "string"
        },
        {
          "internalType": "string",
          "name": "_time",
          "type": "string"
        },
        {
          "internalType": "string",
          "name": "_location",
          "type": "string"
        }
      ],
      "name": "listMatch",
      "outputs": [],
      "stateMutability": "nonpayable",
      "type": "function"
    },
    {
      "inputs": [
        {
          "internalType": "uint256",
          "name": "",
          "type": "uint256"
        }
      ],
      "name": "matches",
      "outputs": [
        {
          "internalType": "uint256",
          "name": "id",
          "type": "uint256"
        },
        {
          "internalType": "string",
          "name": "name",
          "type": "string"
        },
        {
          "internalType": "uint256",
          "name": "price",
          "type": "uint256"
        },
        {
          "internalType": "uint256",
          "name": "tickets",
          "type": "uint256"
        },
        {
          "internalType": "uint256",
          "name": "maxTickets",
          "type": "uint256"
        },
        {
          "internalType": "string",
          "name": "date",
          "type": "string"
        },
        {
          "internalType": "string",
          "name": "time",
          "type": "string"
        },
        {
          "internalType": "string",
          "name": "location",
          "type": "string"
        }
      ],
      "stateMutability": "view",
      "type": "function"
    },
    {
      "inputs": [
        {
          "internalType": "uint256",
          "name": "_id",
          "type": "uint256"
        },
        {
          "internalType": "uint256",
          "name": "_seat",
          "type": "uint256"
        }
      ],
      "name": "mintTicket",
      "outputs": [],
      "stateMutability": "payable",
      "type": "function"
    },
    {
      "inputs": [],
      "name": "name",
      "outputs": [
        {
          "internalType": "string",
          "name": "",
          "type": "string"
        }
      ],
      "stateMutability": "view",
      "type": "function"
    },
    {
      "inputs": [],
      "name": "owner",
      "outputs": [
        {
          "internalType": "address",
          "name": "",
          "type": "address"
        }
      ],
      "stateMutability": "view",
      "type": "function"
    },
    {
      "inputs": [
        {
          "internalType": "uint256",
          "name": "tokenId",
          "type": "uint256"
        }
      ],
      "name": "ownerOf",
      "outputs": [
        {
          "internalType": "address",
          "name": "",
          "type": "address"
        }
      ],
      "stateMutability": "view",
      "type": "function"
    },
    {
      "inputs": [
        {
          "internalType": "uint256",
          "name": "_id",
          "type": "uint256"
        }
      ],
      "name": "removeMatch",
      "outputs": [],
      "stateMutability": "nonpayable",
      "type": "function"
    },
    {
      "inputs": [],
      "name": "renounceOwnership",
      "outputs": [],
      "stateMutability": "nonpayable",
      "type": "function"
    },
    {
      "inputs": [
        {
          "internalType": "address",
          "name": "from",
          "type": "address"
        },
        {
          "internalType": "address",
          "name": "to",
          "type": "address"
        },
        {
          "internalType": "uint256",
          "name": "tokenId",
          "type": "uint256"
        }
      ],
      "name": "safeTransferFrom",
      "outputs": [],
      "stateMutability": "nonpayable",
      "type": "function"
    },
    {
      "inputs": [
        {
          "internalType": "address",
          "name": "from",
          "type": "address"
        },
        {
          "internalType": "address",
          "name": "to",
          "type": "address"
        },
        {
          "internalType": "uint256",
          "name": "tokenId",
          "type": "uint256"
        },
        {
          "internalType": "bytes",
          "name": "data",
          "type": "bytes"
        }
      ],
      "name": "safeTransferFrom",
      "outputs": [],
      "stateMutability": "nonpayable",
      "type": "function"
    },
    {
      "inputs": [
        {
          "internalType": "uint256",
          "name": "",
          "type": "uint256"
        },
        {
          "internalType": "uint256",
          "name": "",
          "type": "uint256"
        }
      ],
      "name": "seatTaken",
      "outputs": [
        {
          "internalType": "address",
          "name": "",
          "type": "address"
        }
      ],
      "stateMutability": "view",
      "type": "function"
    },
    {
      "inputs": [
        {
          "internalType": "uint256",
          "name": "",
          "type": "uint256"
        },
        {
          "internalType": "uint256",
          "name": "",
          "type": "uint256"
        }
      ],
      "name": "seatsTaken",
      "outputs": [
        {
          "internalType": "uint256",
          "name": "",
          "type": "uint256"
        }
      ],
      "stateMutability": "view",
      "type": "function"
    },
    {
      "inputs": [
        {
          "internalType": "address",
          "name": "operator",
          "type": "address"
        },
        {
          "internalType": "bool",
          "name": "approved",
          "type": "bool"
        }
      ],
      "name": "setApprovalForAll",
      "outputs": [],
      "stateMutability": "nonpayable",
      "type": "function"
    },
    {
      "inputs": [
        {
          "internalType": "uint256",
          "name": "_id",
          "type": "uint256"
        },
        {
          "internalType": "uint256",
          "name": "_price",
          "type": "uint256"
        }
      ],
      "name": "setTicketPrice",
      "outputs": [],
      "stateMutability": "nonpayable",
      "type": "function"
    },
    {
      "inputs": [
        {
          "internalType": "uint256",
          "name": "_id",
          "type": "uint256"
        },
        {
          "internalType": "uint256",
          "name": "_tickets",
          "type": "uint256"
        }
      ],
      "name": "setTicketsForSale",
      "outputs": [],
      "stateMutability": "nonpayable",
      "type": "function"
    },
    {
      "inputs": [
        {
          "internalType": "bytes4",
          "name": "interfaceId",
          "type": "bytes4"
        }
      ],
      "name": "supportsInterface",
      "outputs": [
        {
          "internalType": "bool",
          "name": "",
          "type": "bool"
        }
      ],
      "stateMutability": "view",
      "type": "function"
    },
    {
      "inputs": [],
      "name": "symbol",
      "outputs": [
        {
          "internalType": "string",
          "name": "",
          "type": "string"
        }
      ],
      "stateMutability": "view",
      "type": "function"
    },
    {
      "inputs": [
        {
          "internalType": "uint256",
          "name": "tokenId",
          "type": "uint256"
        }
      ],
      "name": "tokenURI",
      "outputs": [
        {
          "internalType": "string",
          "name": "",
          "type": "string"
        }
      ],
      "stateMutability": "view",
      "type": "function"
    },
    {
      "inputs": [],
      "name": "totalMatches",
      "outputs": [
        {
          "internalType": "uint256",
          "name": "",
          "type": "uint256"
        }
      ],
      "stateMutability": "view",
      "type": "function"
    },
    {
      "inputs": [],
      "name": "totalSupply",
      "outputs": [
        {
          "internalType": "uint256",
          "name": "",
          "type": "uint256"
        }
      ],
      "stateMutability": "view",
      "type": "function"
    },
    {
      "inputs": [
        {
          "internalType": "address",
          "name": "from",
          "type": "address"
        },
        {
          "internalType": "address",
          "name": "to",
          "type": "address"
        },
        {
          "internalType": "uint256",
          "name": "tokenId",
          "type": "uint256"
        }
      ],
      "name": "transferFrom",
      "outputs": [],
      "stateMutability": "nonpayable",
      "type": "function"
    },
    {
      "inputs": [
        {
          "internalType": "address",
          "name": "newOwner",
          "type": "address"
        }
      ],
      "name": "transferOwnership",
      "outputs": [],
      "stateMutability": "nonpayable",
      "type": "function"
    },
    {
      "inputs": [],
      "name": "withdraw",
      "outputs": [],
      "stateMutability": "nonpayable",
      "type": "function"
    }
  ],
  "bytecode": "0x60806040523480156200001157600080fd5b50604051620046c6380380620046c6833981810160405281019062000037919062000288565b806040518060400160405280600a81526020017f5265645469636b657473000000000000000000000000000000000000000000008152506040518060400160405280600381526020017f52544b00000000000000000000000000000000000000000000000000000000008152508160009081620000b5919062000534565b508060019081620000c7919062000534565b505050600073ffffffffffffffffffffffffffffffffffffffff168173ffffffffffffffffffffffffffffffffffffffff16036200013f5760006040517f1e4fbdf70000000000000000000000000000000000000000000000000000000081526004016200013691906200062c565b60405180910390fd5b62000150816200015860201b60201c565b505062000649565b6000600660009054906101000a900473ffffffffffffffffffffffffffffffffffffffff16905081600660006101000a81548173ffffffffffffffffffffffffffffffffffffffff021916908373ffffffffffffffffffffffffffffffffffffffff1602179055508173ffffffffffffffffffffffffffffffffffffffff168173ffffffffffffffffffffffffffffffffffffffff167f8be0079c531659141344cd1fd0a4f28419497f9722a3daafe3b4186f6b6457e060405160405180910390a35050565b600080fd5b600073ffffffffffffffffffffffffffffffffffffffff82169050919050565b6000620002508262000223565b9050919050565b620002628162000243565b81146200026e57600080fd5b50565b600081519050620002828162000257565b92915050565b600060208284031215620002a157620002a06200021e565b5b6000620002b18482850162000271565b91505092915050565b600081519050919050565b7f4e487b7100000000000000000000000000000000000000000000000000000000600052604160045260246000fd5b7f4e487b7100000000000000000000000000000000000000000000000000000000600052602260045260246000fd5b600060028204905060018216806200033c57607f821691505b602082108103620003525762000351620002f4565b5b50919050565b60008190508160005260206000209050919050565b60006020601f8301049050919050565b600082821b905092915050565b600060088302620003bc7fffffffffffffffffffffffffffffffffffffffffffffffffffffffffffffffff826200037d565b620003c886836200037d565b95508019841693508086168417925050509392505050565b6000819050919050565b6000819050919050565b6000620004156200040f6200040984620003e0565b620003ea565b620003e0565b9050919050565b6000819050919050565b6200043183620003f4565b6200044962000440826200041c565b8484546200038a565b825550505050565b600090565b6200046062000451565b6200046d81848462000426565b505050565b5b8181101562000495576200048960008262000456565b60018101905062000473565b5050565b601f821115620004e457620004ae8162000358565b620004b9846200036d565b81016020851015620004c9578190505b620004e1620004d8856200036d565b83018262000472565b50505b505050565b600082821c905092915050565b60006200050960001984600802620004e9565b1980831691505092915050565b6000620005248383620004f6565b9150826002028217905092915050565b6200053f82620002ba565b67ffffffffffffffff8111156200055b576200055a620002c5565b5b62000567825462000323565b6200057482828562000499565b600060209050601f831160018114620005ac576000841562000597578287015190505b620005a3858262000516565b86555062000613565b601f198416620005bc8662000358565b60005b82811015620005e657848901518255600182019150602085019450602081019050620005bf565b8683101562000606578489015162000602601f891682620004f6565b8355505b6001600288020188555050505b505050505050565b620006268162000243565b82525050565b60006020820190506200064360008301846200061b565b92915050565b61406d80620006596000396000f3fe6080604052600436106101d85760003560e01c80636352211e11610102578063aa4c4cc111610095578063e985e9c511610064578063e985e9c5146106ec578063f2fde38b14610729578063f5ce45ee14610752578063fca846dc1461077b576101d8565b8063aa4c4cc114610620578063af296da114610649578063b88d4fde14610686578063c87b56dd146106af576101d8565b80638db03a78116100d15780638db03a781461056657806395d89b411461058f5780639cb04aef146105ba578063a22cb465146105f7576101d8565b80636352211e146104aa57806370a08231146104e7578063715018a6146105245780638da5cb5b1461053b576101d8565b806323b872dd1161017a57806342842e0e1161014957806342842e0e146103e45780634768d4ef1461040d5780634e7497fc146104515780635c300eba1461048e576101d8565b806323b872dd1461033c5780632a5b1451146103655780633ccfd60b146103905780633d092b3d146103a7576101d8565b8063095ea7b3116101b6578063095ea7b3146102825780630ef7ec74146102ab57806318160ddd146102e857806320a4deae14610313576101d8565b806301ffc9a7146101dd57806306fdde031461021a578063081812fc14610245575b600080fd5b3480156101e957600080fd5b5061020460048036038101906101ff9190612c7a565b6107a6565b6040516102119190612cc2565b60405180910390f35b34801561022657600080fd5b5061022f610888565b60405161023c9190612d6d565b60405180910390f35b34801561025157600080fd5b5061026c60048036038101906102679190612dc5565b61091a565b6040516102799190612e33565b60405180910390f35b34801561028e57600080fd5b506102a960048036038101906102a49190612e7a565b610936565b005b3480156102b757600080fd5b506102d260048036038101906102cd9190612dc5565b61094c565b6040516102df9190612f78565b60405180910390f35b3480156102f457600080fd5b506102fd6109b7565b60405161030a9190612fa9565b60405180910390f35b34801561031f57600080fd5b5061033a60048036038101906103359190612fc4565b6109bd565b005b34801561034857600080fd5b50610363600480360381019061035e9190613004565b610b2e565b005b34801561037157600080fd5b5061037a610c30565b6040516103879190612fa9565b60405180910390f35b34801561039c57600080fd5b506103a5610c36565b005b3480156103b357600080fd5b506103ce60048036038101906103c99190612dc5565b610cf4565b6040516103db9190613166565b60405180910390f35b3480156103f057600080fd5b5061040b60048036038101906104069190613004565b610f92565b005b34801561041957600080fd5b50610434600480360381019061042f9190612dc5565b610fb2565b604051610448989796959493929190613188565b60405180910390f35b34801561045d57600080fd5b5061047860048036038101906104739190612fc4565b61121a565b6040516104859190612fa9565b60405180910390f35b6104a860048036038101906104a39190612fc4565b61124b565b005b3480156104b657600080fd5b506104d160048036038101906104cc9190612dc5565b611599565b6040516104de9190612e33565b60405180910390f35b3480156104f357600080fd5b5061050e60048036038101906105099190613222565b6115ab565b60405161051b9190612fa9565b60405180910390f35b34801561053057600080fd5b50610539611665565b005b34801561054757600080fd5b50610550611679565b60405161055d9190612e33565b60405180910390f35b34801561057257600080fd5b5061058d60048036038101906105889190612dc5565b6116a3565b005b34801561059b57600080fd5b506105a46117ad565b6040516105b19190612d6d565b60405180910390f35b3480156105c657600080fd5b506105e160048036038101906105dc919061324f565b61183f565b6040516105ee9190612cc2565b60405180910390f35b34801561060357600080fd5b5061061e600480360381019061061991906132bb565b61186e565b005b34801561062c57600080fd5b5061064760048036038101906106429190612fc4565b611884565b005b34801561065557600080fd5b50610670600480360381019061066b9190612fc4565b611936565b60405161067d9190612e33565b60405180910390f35b34801561069257600080fd5b506106ad60048036038101906106a89190613430565b611978565b005b3480156106bb57600080fd5b506106d660048036038101906106d19190612dc5565b611995565b6040516106e39190612d6d565b60405180910390f35b3480156106f857600080fd5b50610713600480360381019061070e91906134b3565b6119fe565b6040516107209190612cc2565b60405180910390f35b34801561073557600080fd5b50610750600480360381019061074b9190613222565b611a92565b005b34801561075e57600080fd5b5061077960048036038101906107749190613594565b611b18565b005b34801561078757600080fd5b50610790611c9e565b60405161079d9190612fa9565b60405180910390f35b60007f80ac58cd000000000000000000000000000000000000000000000000000000007bffffffffffffffffffffffffffffffffffffffffffffffffffffffff1916827bffffffffffffffffffffffffffffffffffffffffffffffffffffffff1916148061087157507f5b5e139f000000000000000000000000000000000000000000000000000000007bffffffffffffffffffffffffffffffffffffffffffffffffffffffff1916827bffffffffffffffffffffffffffffffffffffffffffffffffffffffff1916145b80610881575061088082611ca4565b5b9050919050565b606060008054610897906136c0565b80601f01602080910402602001604051908101604052809291908181526020018280546108c3906136c0565b80156109105780601f106108e557610100808354040283529160200191610910565b820191906000526020600020905b8154815290600101906020018083116108f357829003601f168201915b5050505050905090565b600061092582611d0e565b5061092f82611d96565b9050919050565b6109488282610943611dd3565b611ddb565b5050565b6060600c60008381526020019081526020016000208054806020026020016040519081016040528092919081815260200182805480156109ab57602002820191906000526020600020905b815481526020019060010190808311610997575b50505050509050919050565b60085481565b6109c5611ded565b600082141580156109d857506007548211155b610a17576040517f08c379a0000000000000000000000000000000000000000000000000000000008152600401610a0e9061373d565b60405180910390fd5b61940b811115610a5c576040517f08c379a0000000000000000000000000000000000000000000000000000000008152600401610a53906137a9565b60405180910390fd5b60096000838152602001908152602001600020600301546009600084815260200190815260200160002060040154610a9491906137f8565b811015610ad6576040517f08c379a0000000000000000000000000000000000000000000000000000000008152600401610acd9061389e565b60405180910390fd5b8060096000848152602001908152602001600020600301819055507ffbfebf9661712b957a8f532691a8aa86cb5b8d2340a20353487940f48a0952198282604051610b229291906138be565b60405180910390a15050565b600073ffffffffffffffffffffffffffffffffffffffff168273ffffffffffffffffffffffffffffffffffffffff1603610ba05760006040517f64a0ae92000000000000000000000000000000000000000000000000000000008152600401610b979190612e33565b60405180910390fd5b6000610bb48383610baf611dd3565b611e74565b90508373ffffffffffffffffffffffffffffffffffffffff168173ffffffffffffffffffffffffffffffffffffffff1614610c2a578382826040517f64283d7b000000000000000000000000000000000000000000000000000000008152600401610c21939291906138e7565b60405180910390fd5b50505050565b60075481565b610c3e611ded565b6000610c48611679565b73ffffffffffffffffffffffffffffffffffffffff1647604051610c6b9061394f565b60006040518083038185875af1925050503d8060008114610ca8576040519150601f19603f3d011682016040523d82523d6000602084013e610cad565b606091505b5050905080610cf1576040517f08c379a0000000000000000000000000000000000000000000000000000000008152600401610ce8906139b0565b60405180910390fd5b50565b610cfc612b6c565b600960008381526020019081526020016000206040518061010001604052908160008201548152602001600182018054610d35906136c0565b80601f0160208091040260200160405190810160405280929190818152602001828054610d61906136c0565b8015610dae5780601f10610d8357610100808354040283529160200191610dae565b820191906000526020600020905b815481529060010190602001808311610d9157829003601f168201915b50505050508152602001600282015481526020016003820154815260200160048201548152602001600582018054610de5906136c0565b80601f0160208091040260200160405190810160405280929190818152602001828054610e11906136c0565b8015610e5e5780601f10610e3357610100808354040283529160200191610e5e565b820191906000526020600020905b815481529060010190602001808311610e4157829003601f168201915b50505050508152602001600682018054610e77906136c0565b80601f0160208091040260200160405190810160405280929190818152602001828054610ea3906136c0565b8015610ef05780601f10610ec557610100808354040283529160200191610ef0565b820191906000526020600020905b815481529060010190602001808311610ed357829003601f168201915b50505050508152602001600782018054610f09906136c0565b80601f0160208091040260200160405190810160405280929190818152602001828054610f35906136c0565b8015610f825780601f10610f5757610100808354040283529160200191610f82565b820191906000526020600020905b815481529060010190602001808311610f6557829003601f168201915b5050505050815250509050919050565b610fad83838360405180602001604052806000815250611978565b505050565b6009602052806000526040600020600091509050806000015490806001018054610fdb906136c0565b80601f0160208091040260200160405190810160405280929190818152602001828054611007906136c0565b80156110545780601f1061102957610100808354040283529160200191611054565b820191906000526020600020905b81548152906001019060200180831161103757829003601f168201915b50505050509080600201549080600301549080600401549080600501805461107b906136c0565b80601f01602080910402602001604051908101604052809291908181526020018280546110a7906136c0565b80156110f45780601f106110c9576101008083540402835291602001916110f4565b820191906000526020600020905b8154815290600101906020018083116110d757829003601f168201915b505050505090806006018054611109906136c0565b80601f0160208091040260200160405190810160405280929190818152602001828054611135906136c0565b80156111825780601f1061115757610100808354040283529160200191611182565b820191906000526020600020905b81548152906001019060200180831161116557829003601f168201915b505050505090806007018054611197906136c0565b80601f01602080910402602001604051908101604052809291908181526020018280546111c3906136c0565b80156112105780601f106111e557610100808354040283529160200191611210565b820191906000526020600020905b8154815290600101906020018083116111f357829003601f168201915b5050505050905088565b600c602052816000526040600020818154811061123657600080fd5b90600052602060002001600091509150505481565b6000821415801561125e57506007548211155b61129d576040517f08c379a00000000000000000000000000000000000000000000000000000000081526004016112949061373d565b60405180910390fd5b60096000838152602001908152602001600020600201543410156112f6576040517f08c379a00000000000000000000000000000000000000000000000000000000081526004016112ed90613a1c565b60405180910390fd5b600073ffffffffffffffffffffffffffffffffffffffff16600b6000848152602001908152602001600020600083815260200190815260200160002060009054906101000a900473ffffffffffffffffffffffffffffffffffffffff1673ffffffffffffffffffffffffffffffffffffffff16146113a9576040517f08c379a00000000000000000000000000000000000000000000000000000000081526004016113a090613a88565b60405180910390fd5b6009600083815260200190815260200160002060040154811115611402576040517f08c379a00000000000000000000000000000000000000000000000000000000081526004016113f990613af4565b60405180910390fd5b600160096000848152602001908152602001600020600301600082825461142991906137f8565b925050819055506001600a600084815260200190815260200160002060003373ffffffffffffffffffffffffffffffffffffffff1673ffffffffffffffffffffffffffffffffffffffff16815260200190815260200160002060006101000a81548160ff02191690831515021790555033600b6000848152602001908152602001600020600083815260200190815260200160002060006101000a81548173ffffffffffffffffffffffffffffffffffffffff021916908373ffffffffffffffffffffffffffffffffffffffff160217905550600c60008381526020019081526020016000208190806001815401808255809150506001900390600052602060002001600090919091909150556008600081548092919061154990613b14565b919050555061155a3360085461208e565b7f085ec0eff4bf526b0dd054adffcd8bd8da42126a1133ce302042973f32029fb082823360405161158d93929190613b5c565b60405180910390a15050565b60006115a482611d0e565b9050919050565b60008073ffffffffffffffffffffffffffffffffffffffff168273ffffffffffffffffffffffffffffffffffffffff160361161e5760006040517f89c62b640000000000000000000000000000000000000000000000000000000081526004016116159190612e33565b60405180910390fd5b600360008373ffffffffffffffffffffffffffffffffffffffff1673ffffffffffffffffffffffffffffffffffffffff168152602001908152602001600020549050919050565b61166d611ded565b61167760006120ac565b565b6000600660009054906101000a900473ffffffffffffffffffffffffffffffffffffffff16905090565b6116ab611ded565b600081141580156116be57506007548111155b6116fd576040517f08c379a00000000000000000000000000000000000000000000000000000000081526004016116f49061373d565b60405180910390fd5b600960008281526020019081526020016000206000808201600090556001820160006117299190612bb1565b6002820160009055600382016000905560048201600090556005820160006117519190612bb1565b6006820160006117619190612bb1565b6007820160006117719190612bb1565b50507f7328765c6e4f7b8e7542f05b374b03c39360f07d5fcb200ceb42b744fa9ca207816040516117a29190612fa9565b60405180910390a150565b6060600180546117bc906136c0565b80601f01602080910402602001604051908101604052809291908181526020018280546117e8906136c0565b80156118355780601f1061180a57610100808354040283529160200191611835565b820191906000526020600020905b81548152906001019060200180831161181857829003601f168201915b5050505050905090565b600a6020528160005260406000206020528060005260406000206000915091509054906101000a900460ff1681565b611880611879611dd3565b8383612172565b5050565b61188c611ded565b6000821415801561189f57506007548211155b6118de576040517f08c379a00000000000000000000000000000000000000000000000000000000081526004016118d59061373d565b60405180910390fd5b8060096000848152602001908152602001600020600201819055507f2b1f7bf4eac65cde07a23327df6b7335058852ace70926a2b2d2bc80417c288f828260405161192a9291906138be565b60405180910390a15050565b600b6020528160005260406000206020528060005260406000206000915091509054906101000a900473ffffffffffffffffffffffffffffffffffffffff1681565b611983848484610b2e565b61198f848484846122e1565b50505050565b60606119a082611d0e565b5060006119ab612498565b905060008151116119cb57604051806020016040528060008152506119f6565b806119d5846124af565b6040516020016119e6929190613bcf565b6040516020818303038152906040525b915050919050565b6000600560008473ffffffffffffffffffffffffffffffffffffffff1673ffffffffffffffffffffffffffffffffffffffff16815260200190815260200160002060008373ffffffffffffffffffffffffffffffffffffffff1673ffffffffffffffffffffffffffffffffffffffff16815260200190815260200160002060009054906101000a900460ff16905092915050565b611a9a611ded565b600073ffffffffffffffffffffffffffffffffffffffff168173ffffffffffffffffffffffffffffffffffffffff1603611b0c5760006040517f1e4fbdf7000000000000000000000000000000000000000000000000000000008152600401611b039190612e33565b60405180910390fd5b611b15816120ac565b50565b611b20611ded565b61940b841115611b65576040517f08c379a0000000000000000000000000000000000000000000000000000000008152600401611b5c906137a9565b60405180910390fd5b60076000815480929190611b7890613b14565b9190505550604051806101000160405280600754815260200187815260200186815260200185815260200185815260200184815260200183815260200182815250600960006007548152602001908152602001600020600082015181600001556020820151816001019081611bed9190613d9f565b5060408201518160020155606082015181600301556080820151816004015560a0820151816005019081611c219190613d9f565b5060c0820151816006019081611c379190613d9f565b5060e0820151816007019081611c4d9190613d9f565b509050507ffa4f72ff71c4f5060c2ed4e2ec8faece468ef6cf6c130f754ecb34b11e4db5d5600754878787878787604051611c8e9796959493929190613e71565b60405180910390a1505050505050565b61940b81565b60007f01ffc9a7000000000000000000000000000000000000000000000000000000007bffffffffffffffffffffffffffffffffffffffffffffffffffffffff1916827bffffffffffffffffffffffffffffffffffffffffffffffffffffffff1916149050919050565b600080611d1a8361257d565b9050600073ffffffffffffffffffffffffffffffffffffffff168173ffffffffffffffffffffffffffffffffffffffff1603611d8d57826040517f7e273289000000000000000000000000000000000000000000000000000000008152600401611d849190612fa9565b60405180910390fd5b80915050919050565b60006004600083815260200190815260200160002060009054906101000a900473ffffffffffffffffffffffffffffffffffffffff169050919050565b600033905090565b611de883838360016125ba565b505050565b611df5611dd3565b73ffffffffffffffffffffffffffffffffffffffff16611e13611679565b73ffffffffffffffffffffffffffffffffffffffff1614611e7257611e36611dd3565b6040517f118cdaa7000000000000000000000000000000000000000000000000000000008152600401611e699190612e33565b60405180910390fd5b565b600080611e808461257d565b9050600073ffffffffffffffffffffffffffffffffffffffff168373ffffffffffffffffffffffffffffffffffffffff1614611ec257611ec181848661277f565b5b600073ffffffffffffffffffffffffffffffffffffffff168173ffffffffffffffffffffffffffffffffffffffff1614611f5357611f046000856000806125ba565b6001600360008373ffffffffffffffffffffffffffffffffffffffff1673ffffffffffffffffffffffffffffffffffffffff168152602001908152602001600020600082825403925050819055505b600073ffffffffffffffffffffffffffffffffffffffff168573ffffffffffffffffffffffffffffffffffffffff1614611fd6576001600360008773ffffffffffffffffffffffffffffffffffffffff1673ffffffffffffffffffffffffffffffffffffffff168152602001908152602001600020600082825401925050819055505b846002600086815260200190815260200160002060006101000a81548173ffffffffffffffffffffffffffffffffffffffff021916908373ffffffffffffffffffffffffffffffffffffffff160217905550838573ffffffffffffffffffffffffffffffffffffffff168273ffffffffffffffffffffffffffffffffffffffff167fddf252ad1be2c89b69c2b068fc378daa952ba7f163c4a11628f55a4df523b3ef60405160405180910390a4809150509392505050565b6120a8828260405180602001604052806000815250612843565b5050565b6000600660009054906101000a900473ffffffffffffffffffffffffffffffffffffffff16905081600660006101000a81548173ffffffffffffffffffffffffffffffffffffffff021916908373ffffffffffffffffffffffffffffffffffffffff1602179055508173ffffffffffffffffffffffffffffffffffffffff168173ffffffffffffffffffffffffffffffffffffffff167f8be0079c531659141344cd1fd0a4f28419497f9722a3daafe3b4186f6b6457e060405160405180910390a35050565b600073ffffffffffffffffffffffffffffffffffffffff168273ffffffffffffffffffffffffffffffffffffffff16036121e357816040517f5b08ba180000000000000000000000000000000000000000000000000000000081526004016121da9190612e33565b60405180910390fd5b80600560008573ffffffffffffffffffffffffffffffffffffffff1673ffffffffffffffffffffffffffffffffffffffff16815260200190815260200160002060008473ffffffffffffffffffffffffffffffffffffffff1673ffffffffffffffffffffffffffffffffffffffff16815260200190815260200160002060006101000a81548160ff0219169083151502179055508173ffffffffffffffffffffffffffffffffffffffff168373ffffffffffffffffffffffffffffffffffffffff167f17307eab39ab6107e8899845ad3d59bd9653f200f220920489ca2b5937696c31836040516122d49190612cc2565b60405180910390a3505050565b60008373ffffffffffffffffffffffffffffffffffffffff163b1115612492578273ffffffffffffffffffffffffffffffffffffffff1663150b7a02612325611dd3565b8685856040518563ffffffff1660e01b81526004016123479493929190613f51565b6020604051808303816000875af192505050801561238357506040513d601f19601f820116820180604052508101906123809190613fb2565b60015b612407573d80600081146123b3576040519150601f19603f3d011682016040523d82523d6000602084013e6123b8565b606091505b5060008151036123ff57836040517f64a0ae920000000000000000000000000000000000000000000000000000000081526004016123f69190612e33565b60405180910390fd5b805181602001fd5b63150b7a0260e01b7bffffffffffffffffffffffffffffffffffffffffffffffffffffffff1916817bffffffffffffffffffffffffffffffffffffffffffffffffffffffff19161461249057836040517f64a0ae920000000000000000000000000000000000000000000000000000000081526004016124879190612e33565b60405180910390fd5b505b50505050565b606060405180602001604052806000815250905090565b6060600060016124be8461285f565b01905060008167ffffffffffffffff8111156124dd576124dc613305565b5b6040519080825280601f01601f19166020018201604052801561250f5781602001600182028036833780820191505090505b509050600082602001820190505b600115612572578080600190039150507f3031323334353637383961626364656600000000000000000000000000000000600a86061a8153600a858161256657612565613fdf565b5b0494506000850361251d575b819350505050919050565b60006002600083815260200190815260200160002060009054906101000a900473ffffffffffffffffffffffffffffffffffffffff169050919050565b80806125f35750600073ffffffffffffffffffffffffffffffffffffffff168273ffffffffffffffffffffffffffffffffffffffff1614155b1561272757600061260384611d0e565b9050600073ffffffffffffffffffffffffffffffffffffffff168373ffffffffffffffffffffffffffffffffffffffff161415801561266e57508273ffffffffffffffffffffffffffffffffffffffff168173ffffffffffffffffffffffffffffffffffffffff1614155b8015612681575061267f81846119fe565b155b156126c357826040517fa9fbf51f0000000000000000000000000000000000000000000000000000000081526004016126ba9190612e33565b60405180910390fd5b811561272557838573ffffffffffffffffffffffffffffffffffffffff168273ffffffffffffffffffffffffffffffffffffffff167f8c5be1e5ebec7d5bd14f71427d1e84f3dd0314c0f7b2291e5b200ac8c7c3b92560405160405180910390a45b505b836004600085815260200190815260200160002060006101000a81548173ffffffffffffffffffffffffffffffffffffffff021916908373ffffffffffffffffffffffffffffffffffffffff16021790555050505050565b61278a8383836129b2565b61283e57600073ffffffffffffffffffffffffffffffffffffffff168373ffffffffffffffffffffffffffffffffffffffff16036127ff57806040517f7e2732890000000000000000000000000000000000000000000000000000000081526004016127f69190612fa9565b60405180910390fd5b81816040517f177e802f00000000000000000000000000000000000000000000000000000000815260040161283592919061400e565b60405180910390fd5b505050565b61284d8383612a73565b61285a60008484846122e1565b505050565b600080600090507a184f03e93ff9f4daa797ed6e38ed64bf6a1f01000000000000000083106128bd577a184f03e93ff9f4daa797ed6e38ed64bf6a1f01000000000000000083816128b3576128b2613fdf565b5b0492506040810190505b6d04ee2d6d415b85acef810000000083106128fa576d04ee2d6d415b85acef810000000083816128f0576128ef613fdf565b5b0492506020810190505b662386f26fc10000831061292957662386f26fc10000838161291f5761291e613fdf565b5b0492506010810190505b6305f5e1008310612952576305f5e100838161294857612947613fdf565b5b0492506008810190505b612710831061297757612710838161296d5761296c613fdf565b5b0492506004810190505b6064831061299a57606483816129905761298f613fdf565b5b0492506002810190505b600a83106129a9576001810190505b80915050919050565b60008073ffffffffffffffffffffffffffffffffffffffff168373ffffffffffffffffffffffffffffffffffffffff1614158015612a6a57508273ffffffffffffffffffffffffffffffffffffffff168473ffffffffffffffffffffffffffffffffffffffff161480612a2b5750612a2a84846119fe565b5b80612a6957508273ffffffffffffffffffffffffffffffffffffffff16612a5183611d96565b73ffffffffffffffffffffffffffffffffffffffff16145b5b90509392505050565b600073ffffffffffffffffffffffffffffffffffffffff168273ffffffffffffffffffffffffffffffffffffffff1603612ae55760006040517f64a0ae92000000000000000000000000000000000000000000000000000000008152600401612adc9190612e33565b60405180910390fd5b6000612af383836000611e74565b9050600073ffffffffffffffffffffffffffffffffffffffff168173ffffffffffffffffffffffffffffffffffffffff1614612b675760006040517f73c6ac6e000000000000000000000000000000000000000000000000000000008152600401612b5e9190612e33565b60405180910390fd5b505050565b60405180610100016040528060008152602001606081526020016000815260200160008152602001600081526020016060815260200160608152602001606081525090565b508054612bbd906136c0565b6000825580601f10612bcf5750612bee565b601f016020900490600052602060002090810190612bed9190612bf1565b5b50565b5b80821115612c0a576000816000905550600101612bf2565b5090565b6000604051905090565b600080fd5b600080fd5b60007fffffffff0000000000000000000000000000000000000000000000000000000082169050919050565b612c5781612c22565b8114612c6257600080fd5b50565b600081359050612c7481612c4e565b92915050565b600060208284031215612c9057612c8f612c18565b5b6000612c9e84828501612c65565b91505092915050565b60008115159050919050565b612cbc81612ca7565b82525050565b6000602082019050612cd76000830184612cb3565b92915050565b600081519050919050565b600082825260208201905092915050565b60005b83811015612d17578082015181840152602081019050612cfc565b60008484015250505050565b6000601f19601f8301169050919050565b6000612d3f82612cdd565b612d498185612ce8565b9350612d59818560208601612cf9565b612d6281612d23565b840191505092915050565b60006020820190508181036000830152612d878184612d34565b905092915050565b6000819050919050565b612da281612d8f565b8114612dad57600080fd5b50565b600081359050612dbf81612d99565b92915050565b600060208284031215612ddb57612dda612c18565b5b6000612de984828501612db0565b91505092915050565b600073ffffffffffffffffffffffffffffffffffffffff82169050919050565b6000612e1d82612df2565b9050919050565b612e2d81612e12565b82525050565b6000602082019050612e486000830184612e24565b92915050565b612e5781612e12565b8114612e6257600080fd5b50565b600081359050612e7481612e4e565b92915050565b60008060408385031215612e9157612e90612c18565b5b6000612e9f85828601612e65565b9250506020612eb085828601612db0565b9150509250929050565b600081519050919050565b600082825260208201905092915050565b6000819050602082019050919050565b612eef81612d8f565b82525050565b6000612f018383612ee6565b60208301905092915050565b6000602082019050919050565b6000612f2582612eba565b612f2f8185612ec5565b9350612f3a83612ed6565b8060005b83811015612f6b578151612f528882612ef5565b9750612f5d83612f0d565b925050600181019050612f3e565b5085935050505092915050565b60006020820190508181036000830152612f928184612f1a565b905092915050565b612fa381612d8f565b82525050565b6000602082019050612fbe6000830184612f9a565b92915050565b60008060408385031215612fdb57612fda612c18565b5b6000612fe985828601612db0565b9250506020612ffa85828601612db0565b9150509250929050565b60008060006060848603121561301d5761301c612c18565b5b600061302b86828701612e65565b935050602061303c86828701612e65565b925050604061304d86828701612db0565b9150509250925092565b600082825260208201905092915050565b600061307382612cdd565b61307d8185613057565b935061308d818560208601612cf9565b61309681612d23565b840191505092915050565b6000610100830160008301516130ba6000860182612ee6565b50602083015184820360208601526130d28282613068565b91505060408301516130e76040860182612ee6565b5060608301516130fa6060860182612ee6565b50608083015161310d6080860182612ee6565b5060a083015184820360a08601526131258282613068565b91505060c083015184820360c086015261313f8282613068565b91505060e083015184820360e08601526131598282613068565b9150508091505092915050565b6000602082019050818103600083015261318081846130a1565b905092915050565b60006101008201905061319e600083018b612f9a565b81810360208301526131b0818a612d34565b90506131bf6040830189612f9a565b6131cc6060830188612f9a565b6131d96080830187612f9a565b81810360a08301526131eb8186612d34565b905081810360c08301526131ff8185612d34565b905081810360e08301526132138184612d34565b90509998505050505050505050565b60006020828403121561323857613237612c18565b5b600061324684828501612e65565b91505092915050565b6000806040838503121561326657613265612c18565b5b600061327485828601612db0565b925050602061328585828601612e65565b9150509250929050565b61329881612ca7565b81146132a357600080fd5b50565b6000813590506132b58161328f565b92915050565b600080604083850312156132d2576132d1612c18565b5b60006132e085828601612e65565b92505060206132f1858286016132a6565b9150509250929050565b600080fd5b600080fd5b7f4e487b7100000000000000000000000000000000000000000000000000000000600052604160045260246000fd5b61333d82612d23565b810181811067ffffffffffffffff8211171561335c5761335b613305565b5b80604052505050565b600061336f612c0e565b905061337b8282613334565b919050565b600067ffffffffffffffff82111561339b5761339a613305565b5b6133a482612d23565b9050602081019050919050565b82818337600083830152505050565b60006133d36133ce84613380565b613365565b9050828152602081018484840111156133ef576133ee613300565b5b6133fa8482856133b1565b509392505050565b600082601f830112613417576134166132fb565b5b81356134278482602086016133c0565b91505092915050565b6000806000806080858703121561344a57613449612c18565b5b600061345887828801612e65565b945050602061346987828801612e65565b935050604061347a87828801612db0565b925050606085013567ffffffffffffffff81111561349b5761349a612c1d565b5b6134a787828801613402565b91505092959194509250565b600080604083850312156134ca576134c9612c18565b5b60006134d885828601612e65565b92505060206134e985828601612e65565b9150509250929050565b600067ffffffffffffffff82111561350e5761350d613305565b5b61351782612d23565b9050602081019050919050565b6000613537613532846134f3565b613365565b90508281526020810184848401111561355357613552613300565b5b61355e8482856133b1565b509392505050565b600082601f83011261357b5761357a6132fb565b5b813561358b848260208601613524565b91505092915050565b60008060008060008060c087890312156135b1576135b0612c18565b5b600087013567ffffffffffffffff8111156135cf576135ce612c1d565b5b6135db89828a01613566565b96505060206135ec89828a01612db0565b95505060406135fd89828a01612db0565b945050606087013567ffffffffffffffff81111561361e5761361d612c1d565b5b61362a89828a01613566565b935050608087013567ffffffffffffffff81111561364b5761364a612c1d565b5b61365789828a01613566565b92505060a087013567ffffffffffffffff81111561367857613677612c1d565b5b61368489828a01613566565b9150509295509295509295565b7f4e487b7100000000000000000000000000000000000000000000000000000000600052602260045260246000fd5b600060028204905060018216806136d857607f821691505b6020821081036136eb576136ea613691565b5b50919050565b7f496e76616c6964206d6174636820494400000000000000000000000000000000600082015250565b6000613727601083612ce8565b9150613732826136f1565b602082019050919050565b600060208201905081810360008301526137568161371a565b9050919050565b7f43616e6e6f7420657863656564207374616469756d2063617061636974790000600082015250565b6000613793601e83612ce8565b915061379e8261375d565b602082019050919050565b600060208201905081810360008301526137c281613786565b9050919050565b7f4e487b7100000000000000000000000000000000000000000000000000000000600052601160045260246000fd5b600061380382612d8f565b915061380e83612d8f565b9250828203905081811115613826576138256137c9565b5b92915050565b7f43616e6e6f7420736574206c657373207469636b657473207468616e20616c7260008201527f6561647920736f6c640000000000000000000000000000000000000000000000602082015250565b6000613888602983612ce8565b91506138938261382c565b604082019050919050565b600060208201905081810360008301526138b78161387b565b9050919050565b60006040820190506138d36000830185612f9a565b6138e06020830184612f9a565b9392505050565b60006060820190506138fc6000830186612e24565b6139096020830185612f9a565b6139166040830184612e24565b949350505050565b600081905092915050565b50565b600061393960008361391e565b915061394482613929565b600082019050919050565b600061395a8261392c565b9150819050919050565b7f5769746864726177616c206661696c6564000000000000000000000000000000600082015250565b600061399a601183612ce8565b91506139a582613964565b602082019050919050565b600060208201905081810360008301526139c98161398d565b9050919050565b7f496e636f727265637420616d6f756e742073656e740000000000000000000000600082015250565b6000613a06601583612ce8565b9150613a11826139d0565b602082019050919050565b60006020820190508181036000830152613a35816139f9565b9050919050565b7f5365617420616c72656164792074616b656e0000000000000000000000000000600082015250565b6000613a72601283612ce8565b9150613a7d82613a3c565b602082019050919050565b60006020820190508181036000830152613aa181613a65565b9050919050565b7f496e76616c69642073656174206e756d62657200000000000000000000000000600082015250565b6000613ade601383612ce8565b9150613ae982613aa8565b602082019050919050565b60006020820190508181036000830152613b0d81613ad1565b9050919050565b6000613b1f82612d8f565b91507fffffffffffffffffffffffffffffffffffffffffffffffffffffffffffffffff8203613b5157613b506137c9565b5b600182019050919050565b6000606082019050613b716000830186612f9a565b613b7e6020830185612f9a565b613b8b6040830184612e24565b949350505050565b600081905092915050565b6000613ba982612cdd565b613bb38185613b93565b9350613bc3818560208601612cf9565b80840191505092915050565b6000613bdb8285613b9e565b9150613be78284613b9e565b91508190509392505050565b60008190508160005260206000209050919050565b60006020601f8301049050919050565b600082821b905092915050565b600060088302613c557fffffffffffffffffffffffffffffffffffffffffffffffffffffffffffffffff82613c18565b613c5f8683613c18565b95508019841693508086168417925050509392505050565b6000819050919050565b6000613c9c613c97613c9284612d8f565b613c77565b612d8f565b9050919050565b6000819050919050565b613cb683613c81565b613cca613cc282613ca3565b848454613c25565b825550505050565b600090565b613cdf613cd2565b613cea818484613cad565b505050565b5b81811015613d0e57613d03600082613cd7565b600181019050613cf0565b5050565b601f821115613d5357613d2481613bf3565b613d2d84613c08565b81016020851015613d3c578190505b613d50613d4885613c08565b830182613cef565b50505b505050565b600082821c905092915050565b6000613d7660001984600802613d58565b1980831691505092915050565b6000613d8f8383613d65565b9150826002028217905092915050565b613da882612cdd565b67ffffffffffffffff811115613dc157613dc0613305565b5b613dcb82546136c0565b613dd6828285613d12565b600060209050601f831160018114613e095760008415613df7578287015190505b613e018582613d83565b865550613e69565b601f198416613e1786613bf3565b60005b82811015613e3f57848901518255600182019150602085019450602081019050613e1a565b86831015613e5c5784890151613e58601f891682613d65565b8355505b6001600288020188555050505b505050505050565b600060e082019050613e86600083018a612f9a565b8181036020830152613e988189612d34565b9050613ea76040830188612f9a565b613eb46060830187612f9a565b8181036080830152613ec68186612d34565b905081810360a0830152613eda8185612d34565b905081810360c0830152613eee8184612d34565b905098975050505050505050565b600081519050919050565b600082825260208201905092915050565b6000613f2382613efc565b613f2d8185613f07565b9350613f3d818560208601612cf9565b613f4681612d23565b840191505092915050565b6000608082019050613f666000830187612e24565b613f736020830186612e24565b613f806040830185612f9a565b8181036060830152613f928184613f18565b905095945050505050565b600081519050613fac81612c4e565b92915050565b600060208284031215613fc857613fc7612c18565b5b6000613fd684828501613f9d565b91505092915050565b7f4e487b7100000000000000000000000000000000000000000000000000000000600052601260045260246000fd5b60006040820190506140236000830185612e24565b6140306020830184612f9a565b939250505056fea2646970667358221220ca82a95c45e1941f86b4d71ace4dcb9777ba01e33811f3381846a2749ea22d9264736f6c63430008180033",
  "linkReferences": {},
  "deployedLinkReferences": {}
}