{
  "_format": "hh-sol-artifact-1",
  "contractName": "Ticket",
  "sourceName": "contracts/Ticket.sol",
  "abi": [
    {
      "inputs": [
        {
          "internalType": "address",
          "name": "initialOwner",
          "type": "address"
        }
      ],
      "stateMutability": "nonpayable",
      "type": "constructor"
    },
    {
      "inputs": [
        {
          "internalType": "address",
          "name": "sender",
          "type": "address"
        },
        {
          "internalType": "uint256",
          "name": "tokenId",
          "type": "uint256"
        },
        {
          "internalType": "address",
          "name": "owner",
          "type": "address"
        }
      ],
      "name": "ERC721IncorrectOwner",
      "type": "error"
    },
    {
      "inputs": [
        {
          "internalType": "address",
          "name": "operator",
          "type": "address"
        },
        {
          "internalType": "uint256",
          "name": "tokenId",
          "type": "uint256"
        }
      ],
      "name": "ERC721InsufficientApproval",
      "type": "error"
    },
    {
      "inputs": [
        {
          "internalType": "address",
          "name": "approver",
          "type": "address"
        }
      ],
      "name": "ERC721InvalidApprover",
      "type": "error"
    },
    {
      "inputs": [
        {
          "internalType": "address",
          "name": "operator",
          "type": "address"
        }
      ],
      "name": "ERC721InvalidOperator",
      "type": "error"
    },
    {
      "inputs": [
        {
          "internalType": "address",
          "name": "owner",
          "type": "address"
        }
      ],
      "name": "ERC721InvalidOwner",
      "type": "error"
    },
    {
      "inputs": [
        {
          "internalType": "address",
          "name": "receiver",
          "type": "address"
        }
      ],
      "name": "ERC721InvalidReceiver",
      "type": "error"
    },
    {
      "inputs": [
        {
          "internalType": "address",
          "name": "sender",
          "type": "address"
        }
      ],
      "name": "ERC721InvalidSender",
      "type": "error"
    },
    {
      "inputs": [
        {
          "internalType": "uint256",
          "name": "tokenId",
          "type": "uint256"
        }
      ],
      "name": "ERC721NonexistentToken",
      "type": "error"
    },
    {
      "inputs": [
        {
          "internalType": "address",
          "name": "owner",
          "type": "address"
        }
      ],
      "name": "OwnableInvalidOwner",
      "type": "error"
    },
    {
      "inputs": [
        {
          "internalType": "address",
          "name": "account",
          "type": "address"
        }
      ],
      "name": "OwnableUnauthorizedAccount",
      "type": "error"
    },
    {
      "anonymous": false,
      "inputs": [
        {
          "indexed": true,
          "internalType": "address",
          "name": "owner",
          "type": "address"
        },
        {
          "indexed": true,
          "internalType": "address",
          "name": "approved",
          "type": "address"
        },
        {
          "indexed": true,
          "internalType": "uint256",
          "name": "tokenId",
          "type": "uint256"
        }
      ],
      "name": "Approval",
      "type": "event"
    },
    {
      "anonymous": false,
      "inputs": [
        {
          "indexed": true,
          "internalType": "address",
          "name": "owner",
          "type": "address"
        },
        {
          "indexed": true,
          "internalType": "address",
          "name": "operator",
          "type": "address"
        },
        {
          "indexed": false,
          "internalType": "bool",
          "name": "approved",
          "type": "bool"
        }
      ],
      "name": "ApprovalForAll",
      "type": "event"
    },
    {
      "anonymous": false,
      "inputs": [
        {
          "indexed": true,
          "internalType": "address",
          "name": "previousOwner",
          "type": "address"
        },
        {
          "indexed": true,
          "internalType": "address",
          "name": "newOwner",
          "type": "address"
        }
      ],
      "name": "OwnershipTransferred",
      "type": "event"
    },
    {
      "anonymous": false,
      "inputs": [
        {
          "indexed": true,
          "internalType": "address",
          "name": "from",
          "type": "address"
        },
        {
          "indexed": true,
          "internalType": "address",
          "name": "to",
          "type": "address"
        },
        {
          "indexed": true,
          "internalType": "uint256",
          "name": "tokenId",
          "type": "uint256"
        }
      ],
      "name": "Transfer",
      "type": "event"
    },
    {
      "inputs": [],
      "name": "MAX_TICKETS",
      "outputs": [
        {
          "internalType": "uint256",
          "name": "",
          "type": "uint256"
        }
      ],
      "stateMutability": "view",
      "type": "function"
    },
    {
      "inputs": [
        {
          "internalType": "address",
          "name": "to",
          "type": "address"
        },
        {
          "internalType": "uint256",
          "name": "tokenId",
          "type": "uint256"
        }
      ],
      "name": "approve",
      "outputs": [],
      "stateMutability": "nonpayable",
      "type": "function"
    },
    {
      "inputs": [
        {
          "internalType": "address",
          "name": "owner",
          "type": "address"
        }
      ],
      "name": "balanceOf",
      "outputs": [
        {
          "internalType": "uint256",
          "name": "",
          "type": "uint256"
        }
      ],
      "stateMutability": "view",
      "type": "function"
    },
    {
      "inputs": [],
      "name": "buyTicket",
      "outputs": [],
      "stateMutability": "payable",
      "type": "function"
    },
    {
      "inputs": [
        {
          "internalType": "uint256",
          "name": "tokenId",
          "type": "uint256"
        }
      ],
      "name": "getApproved",
      "outputs": [
        {
          "internalType": "address",
          "name": "",
          "type": "address"
        }
      ],
      "stateMutability": "view",
      "type": "function"
    },
    {
      "inputs": [
        {
          "internalType": "address",
          "name": "owner",
          "type": "address"
        },
        {
          "internalType": "address",
          "name": "operator",
          "type": "address"
        }
      ],
      "name": "isApprovedForAll",
      "outputs": [
        {
          "internalType": "bool",
          "name": "",
          "type": "bool"
        }
      ],
      "stateMutability": "view",
      "type": "function"
    },
    {
      "inputs": [
        {
          "internalType": "address",
          "name": "to",
          "type": "address"
        }
      ],
      "name": "mintTicket",
      "outputs": [],
      "stateMutability": "nonpayable",
      "type": "function"
    },
    {
      "inputs": [],
      "name": "name",
      "outputs": [
        {
          "internalType": "string",
          "name": "",
          "type": "string"
        }
      ],
      "stateMutability": "view",
      "type": "function"
    },
    {
      "inputs": [],
      "name": "owner",
      "outputs": [
        {
          "internalType": "address",
          "name": "",
          "type": "address"
        }
      ],
      "stateMutability": "view",
      "type": "function"
    },
    {
      "inputs": [
        {
          "internalType": "uint256",
          "name": "tokenId",
          "type": "uint256"
        }
      ],
      "name": "ownerOf",
      "outputs": [
        {
          "internalType": "address",
          "name": "",
          "type": "address"
        }
      ],
      "stateMutability": "view",
      "type": "function"
    },
    {
      "inputs": [],
      "name": "renounceOwnership",
      "outputs": [],
      "stateMutability": "nonpayable",
      "type": "function"
    },
    {
      "inputs": [
        {
          "internalType": "address",
          "name": "from",
          "type": "address"
        },
        {
          "internalType": "address",
          "name": "to",
          "type": "address"
        },
        {
          "internalType": "uint256",
          "name": "tokenId",
          "type": "uint256"
        }
      ],
      "name": "safeTransferFrom",
      "outputs": [],
      "stateMutability": "nonpayable",
      "type": "function"
    },
    {
      "inputs": [
        {
          "internalType": "address",
          "name": "from",
          "type": "address"
        },
        {
          "internalType": "address",
          "name": "to",
          "type": "address"
        },
        {
          "internalType": "uint256",
          "name": "tokenId",
          "type": "uint256"
        },
        {
          "internalType": "bytes",
          "name": "data",
          "type": "bytes"
        }
      ],
      "name": "safeTransferFrom",
      "outputs": [],
      "stateMutability": "nonpayable",
      "type": "function"
    },
    {
      "inputs": [
        {
          "internalType": "address",
          "name": "operator",
          "type": "address"
        },
        {
          "internalType": "bool",
          "name": "approved",
          "type": "bool"
        }
      ],
      "name": "setApprovalForAll",
      "outputs": [],
      "stateMutability": "nonpayable",
      "type": "function"
    },
    {
      "inputs": [
        {
          "internalType": "uint256",
          "name": "price",
          "type": "uint256"
        }
      ],
      "name": "setTicketPrice",
      "outputs": [],
      "stateMutability": "nonpayable",
      "type": "function"
    },
    {
      "inputs": [
        {
          "internalType": "uint256",
          "name": "tickets",
          "type": "uint256"
        }
      ],
      "name": "setTicketsForSale",
      "outputs": [],
      "stateMutability": "nonpayable",
      "type": "function"
    },
    {
      "inputs": [
        {
          "internalType": "bytes4",
          "name": "interfaceId",
          "type": "bytes4"
        }
      ],
      "name": "supportsInterface",
      "outputs": [
        {
          "internalType": "bool",
          "name": "",
          "type": "bool"
        }
      ],
      "stateMutability": "view",
      "type": "function"
    },
    {
      "inputs": [],
      "name": "symbol",
      "outputs": [
        {
          "internalType": "string",
          "name": "",
          "type": "string"
        }
      ],
      "stateMutability": "view",
      "type": "function"
    },
    {
      "inputs": [],
      "name": "ticketPrice",
      "outputs": [
        {
          "internalType": "uint256",
          "name": "",
          "type": "uint256"
        }
      ],
      "stateMutability": "view",
      "type": "function"
    },
    {
      "inputs": [],
      "name": "ticketsForSale",
      "outputs": [
        {
          "internalType": "uint256",
          "name": "",
          "type": "uint256"
        }
      ],
      "stateMutability": "view",
      "type": "function"
    },
    {
      "inputs": [
        {
          "internalType": "uint256",
          "name": "tokenId",
          "type": "uint256"
        }
      ],
      "name": "tokenURI",
      "outputs": [
        {
          "internalType": "string",
          "name": "",
          "type": "string"
        }
      ],
      "stateMutability": "view",
      "type": "function"
    },
    {
      "inputs": [
        {
          "internalType": "address",
          "name": "from",
          "type": "address"
        },
        {
          "internalType": "address",
          "name": "to",
          "type": "address"
        },
        {
          "internalType": "uint256",
          "name": "tokenId",
          "type": "uint256"
        }
      ],
      "name": "transferFrom",
      "outputs": [],
      "stateMutability": "nonpayable",
      "type": "function"
    },
    {
      "inputs": [
        {
          "internalType": "address",
          "name": "newOwner",
          "type": "address"
        }
      ],
      "name": "transferOwnership",
      "outputs": [],
      "stateMutability": "nonpayable",
      "type": "function"
    },
    {
      "inputs": [],
      "name": "withdraw",
      "outputs": [],
      "stateMutability": "nonpayable",
      "type": "function"
    }
  ],
  "bytecode": "0x6080604052670de0b6b3a764000060085561940b6009553480156200002357600080fd5b5060405162002c5038038062002c5083398181016040528101906200004991906200029a565b806040518060400160405280600681526020017f5469636b657400000000000000000000000000000000000000000000000000008152506040518060400160405280600681526020017f5449434b455400000000000000000000000000000000000000000000000000008152508160009081620000c7919062000546565b508060019081620000d9919062000546565b505050600073ffffffffffffffffffffffffffffffffffffffff168173ffffffffffffffffffffffffffffffffffffffff1603620001515760006040517f1e4fbdf70000000000000000000000000000000000000000000000000000000081526004016200014891906200063e565b60405180910390fd5b62000162816200016a60201b60201c565b50506200065b565b6000600660009054906101000a900473ffffffffffffffffffffffffffffffffffffffff16905081600660006101000a81548173ffffffffffffffffffffffffffffffffffffffff021916908373ffffffffffffffffffffffffffffffffffffffff1602179055508173ffffffffffffffffffffffffffffffffffffffff168173ffffffffffffffffffffffffffffffffffffffff167f8be0079c531659141344cd1fd0a4f28419497f9722a3daafe3b4186f6b6457e060405160405180910390a35050565b600080fd5b600073ffffffffffffffffffffffffffffffffffffffff82169050919050565b6000620002628262000235565b9050919050565b620002748162000255565b81146200028057600080fd5b50565b600081519050620002948162000269565b92915050565b600060208284031215620002b357620002b262000230565b5b6000620002c38482850162000283565b91505092915050565b600081519050919050565b7f4e487b7100000000000000000000000000000000000000000000000000000000600052604160045260246000fd5b7f4e487b7100000000000000000000000000000000000000000000000000000000600052602260045260246000fd5b600060028204905060018216806200034e57607f821691505b60208210810362000364576200036362000306565b5b50919050565b60008190508160005260206000209050919050565b60006020601f8301049050919050565b600082821b905092915050565b600060088302620003ce7fffffffffffffffffffffffffffffffffffffffffffffffffffffffffffffffff826200038f565b620003da86836200038f565b95508019841693508086168417925050509392505050565b6000819050919050565b6000819050919050565b600062000427620004216200041b84620003f2565b620003fc565b620003f2565b9050919050565b6000819050919050565b620004438362000406565b6200045b62000452826200042e565b8484546200039c565b825550505050565b600090565b6200047262000463565b6200047f81848462000438565b505050565b5b81811015620004a7576200049b60008262000468565b60018101905062000485565b5050565b601f821115620004f657620004c0816200036a565b620004cb846200037f565b81016020851015620004db578190505b620004f3620004ea856200037f565b83018262000484565b50505b505050565b600082821c905092915050565b60006200051b60001984600802620004fb565b1980831691505092915050565b600062000536838362000508565b9150826002028217905092915050565b6200055182620002cc565b67ffffffffffffffff8111156200056d576200056c620002d7565b5b62000579825462000335565b62000586828285620004ab565b600060209050601f831160018114620005be5760008415620005a9578287015190505b620005b5858262000528565b86555062000625565b601f198416620005ce866200036a565b60005b82811015620005f857848901518255600182019150602085019450602081019050620005d1565b8683101562000618578489015162000614601f89168262000508565b8355505b6001600288020188555050505b505050505050565b620006388162000255565b82525050565b60006020820190506200065560008301846200062d565b92915050565b6125e5806200066b6000396000f3fe60806040526004361061014b5760003560e01c806370a08231116100b6578063b88d4fde1161006f578063b88d4fde14610468578063c87b56dd14610491578063e985e9c5146104ce578063edca914c1461050b578063f2fde38b14610515578063fca846dc1461053e5761014b565b806370a082311461036a578063715018a6146103a75780638da5cb5b146103be57806395d89b41146103e9578063a22cb46514610414578063a46057c81461043d5761014b565b806315981650116101085780631598165014610272578063180a38821461029b57806323b872dd146102c45780633ccfd60b146102ed57806342842e0e146103045780636352211e1461032d5761014b565b806301ffc9a71461015057806306fdde031461018d578063081812fc146101b857806308e9bd26146101f5578063095ea7b31461021e5780631209b1f614610247575b600080fd5b34801561015c57600080fd5b5061017760048036038101906101729190611c4e565b610569565b6040516101849190611c96565b60405180910390f35b34801561019957600080fd5b506101a261064b565b6040516101af9190611d41565b60405180910390f35b3480156101c457600080fd5b506101df60048036038101906101da9190611d99565b6106dd565b6040516101ec9190611e07565b60405180910390f35b34801561020157600080fd5b5061021c60048036038101906102179190611e4e565b6106f9565b005b34801561022a57600080fd5b5061024560048036038101906102409190611e7b565b61076e565b005b34801561025357600080fd5b5061025c610784565b6040516102699190611eca565b60405180910390f35b34801561027e57600080fd5b5061029960048036038101906102949190611d99565b61078a565b005b3480156102a757600080fd5b506102c260048036038101906102bd9190611d99565b61079c565b005b3480156102d057600080fd5b506102eb60048036038101906102e69190611ee5565b6107f3565b005b3480156102f957600080fd5b506103026108f5565b005b34801561031057600080fd5b5061032b60048036038101906103269190611ee5565b61094d565b005b34801561033957600080fd5b50610354600480360381019061034f9190611d99565b61096d565b6040516103619190611e07565b60405180910390f35b34801561037657600080fd5b50610391600480360381019061038c9190611e4e565b61097f565b60405161039e9190611eca565b60405180910390f35b3480156103b357600080fd5b506103bc610a39565b005b3480156103ca57600080fd5b506103d3610a4d565b6040516103e09190611e07565b60405180910390f35b3480156103f557600080fd5b506103fe610a77565b60405161040b9190611d41565b60405180910390f35b34801561042057600080fd5b5061043b60048036038101906104369190611f64565b610b09565b005b34801561044957600080fd5b50610452610b1f565b60405161045f9190611eca565b60405180910390f35b34801561047457600080fd5b5061048f600480360381019061048a91906120d9565b610b25565b005b34801561049d57600080fd5b506104b860048036038101906104b39190611d99565b610b42565b6040516104c59190611d41565b60405180910390f35b3480156104da57600080fd5b506104f560048036038101906104f0919061215c565b610bab565b6040516105029190611c96565b60405180910390f35b610513610c3f565b005b34801561052157600080fd5b5061053c60048036038101906105379190611e4e565b610c8e565b005b34801561054a57600080fd5b50610553610d14565b6040516105609190611eca565b60405180910390f35b60007f80ac58cd000000000000000000000000000000000000000000000000000000007bffffffffffffffffffffffffffffffffffffffffffffffffffffffff1916827bffffffffffffffffffffffffffffffffffffffffffffffffffffffff1916148061063457507f5b5e139f000000000000000000000000000000000000000000000000000000007bffffffffffffffffffffffffffffffffffffffffffffffffffffffff1916827bffffffffffffffffffffffffffffffffffffffffffffffffffffffff1916145b80610644575061064382610d1a565b5b9050919050565b60606000805461065a906121cb565b80601f0160208091040260200160405190810160405280929190818152602001828054610686906121cb565b80156106d35780601f106106a8576101008083540402835291602001916106d3565b820191906000526020600020905b8154815290600101906020018083116106b657829003601f168201915b5050505050905090565b60006106e882610d84565b506106f282610e0c565b9050919050565b610701610e49565b60095460075410610747576040517f08c379a000000000000000000000000000000000000000000000000000000000815260040161073e9061226e565b60405180910390fd5b61075381600754610ed0565b60076000815480929190610766906122bd565b919050555050565b610780828261077b610eee565b610ef6565b5050565b60085481565b610792610e49565b8060088190555050565b6107a4610e49565b61940b8111156107e9576040517f08c379a00000000000000000000000000000000000000000000000000000000081526004016107e090612351565b60405180910390fd5b8060098190555050565b600073ffffffffffffffffffffffffffffffffffffffff168273ffffffffffffffffffffffffffffffffffffffff16036108655760006040517f64a0ae9200000000000000000000000000000000000000000000000000000000815260040161085c9190611e07565b60405180910390fd5b60006108798383610874610eee565b610f08565b90508373ffffffffffffffffffffffffffffffffffffffff168173ffffffffffffffffffffffffffffffffffffffff16146108ef578382826040517f64283d7b0000000000000000000000000000000000000000000000000000000081526004016108e693929190612371565b60405180910390fd5b50505050565b6108fd610e49565b610905610a4d565b73ffffffffffffffffffffffffffffffffffffffff166108fc479081150290604051600060405180830381858888f1935050505015801561094a573d6000803e3d6000fd5b50565b61096883838360405180602001604052806000815250610b25565b505050565b600061097882610d84565b9050919050565b60008073ffffffffffffffffffffffffffffffffffffffff168273ffffffffffffffffffffffffffffffffffffffff16036109f25760006040517f89c62b640000000000000000000000000000000000000000000000000000000081526004016109e99190611e07565b60405180910390fd5b600360008373ffffffffffffffffffffffffffffffffffffffff1673ffffffffffffffffffffffffffffffffffffffff168152602001908152602001600020549050919050565b610a41610e49565b610a4b6000611122565b565b6000600660009054906101000a900473ffffffffffffffffffffffffffffffffffffffff16905090565b606060018054610a86906121cb565b80601f0160208091040260200160405190810160405280929190818152602001828054610ab2906121cb565b8015610aff5780601f10610ad457610100808354040283529160200191610aff565b820191906000526020600020905b815481529060010190602001808311610ae257829003601f168201915b5050505050905090565b610b1b610b14610eee565b83836111e8565b5050565b60095481565b610b308484846107f3565b610b3c84848484611357565b50505050565b6060610b4d82610d84565b506000610b5861150e565b90506000815111610b785760405180602001604052806000815250610ba3565b80610b8284611525565b604051602001610b939291906123e4565b6040516020818303038152906040525b915050919050565b6000600560008473ffffffffffffffffffffffffffffffffffffffff1673ffffffffffffffffffffffffffffffffffffffff16815260200190815260200160002060008373ffffffffffffffffffffffffffffffffffffffff1673ffffffffffffffffffffffffffffffffffffffff16815260200190815260200160002060009054906101000a900460ff16905092915050565b6008543414610c83576040517f08c379a0000000000000000000000000000000000000000000000000000000008152600401610c7a90612454565b60405180910390fd5b610c8c336106f9565b565b610c96610e49565b600073ffffffffffffffffffffffffffffffffffffffff168173ffffffffffffffffffffffffffffffffffffffff1603610d085760006040517f1e4fbdf7000000000000000000000000000000000000000000000000000000008152600401610cff9190611e07565b60405180910390fd5b610d1181611122565b50565b61940b81565b60007f01ffc9a7000000000000000000000000000000000000000000000000000000007bffffffffffffffffffffffffffffffffffffffffffffffffffffffff1916827bffffffffffffffffffffffffffffffffffffffffffffffffffffffff1916149050919050565b600080610d90836115f3565b9050600073ffffffffffffffffffffffffffffffffffffffff168173ffffffffffffffffffffffffffffffffffffffff1603610e0357826040517f7e273289000000000000000000000000000000000000000000000000000000008152600401610dfa9190611eca565b60405180910390fd5b80915050919050565b60006004600083815260200190815260200160002060009054906101000a900473ffffffffffffffffffffffffffffffffffffffff169050919050565b610e51610eee565b73ffffffffffffffffffffffffffffffffffffffff16610e6f610a4d565b73ffffffffffffffffffffffffffffffffffffffff1614610ece57610e92610eee565b6040517f118cdaa7000000000000000000000000000000000000000000000000000000008152600401610ec59190611e07565b60405180910390fd5b565b610eea828260405180602001604052806000815250611630565b5050565b600033905090565b610f03838383600161164c565b505050565b600080610f14846115f3565b9050600073ffffffffffffffffffffffffffffffffffffffff168373ffffffffffffffffffffffffffffffffffffffff1614610f5657610f55818486611811565b5b600073ffffffffffffffffffffffffffffffffffffffff168173ffffffffffffffffffffffffffffffffffffffff1614610fe757610f9860008560008061164c565b6001600360008373ffffffffffffffffffffffffffffffffffffffff1673ffffffffffffffffffffffffffffffffffffffff168152602001908152602001600020600082825403925050819055505b600073ffffffffffffffffffffffffffffffffffffffff168573ffffffffffffffffffffffffffffffffffffffff161461106a576001600360008773ffffffffffffffffffffffffffffffffffffffff1673ffffffffffffffffffffffffffffffffffffffff168152602001908152602001600020600082825401925050819055505b846002600086815260200190815260200160002060006101000a81548173ffffffffffffffffffffffffffffffffffffffff021916908373ffffffffffffffffffffffffffffffffffffffff160217905550838573ffffffffffffffffffffffffffffffffffffffff168273ffffffffffffffffffffffffffffffffffffffff167fddf252ad1be2c89b69c2b068fc378daa952ba7f163c4a11628f55a4df523b3ef60405160405180910390a4809150509392505050565b6000600660009054906101000a900473ffffffffffffffffffffffffffffffffffffffff16905081600660006101000a81548173ffffffffffffffffffffffffffffffffffffffff021916908373ffffffffffffffffffffffffffffffffffffffff1602179055508173ffffffffffffffffffffffffffffffffffffffff168173ffffffffffffffffffffffffffffffffffffffff167f8be0079c531659141344cd1fd0a4f28419497f9722a3daafe3b4186f6b6457e060405160405180910390a35050565b600073ffffffffffffffffffffffffffffffffffffffff168273ffffffffffffffffffffffffffffffffffffffff160361125957816040517f5b08ba180000000000000000000000000000000000000000000000000000000081526004016112509190611e07565b60405180910390fd5b80600560008573ffffffffffffffffffffffffffffffffffffffff1673ffffffffffffffffffffffffffffffffffffffff16815260200190815260200160002060008473ffffffffffffffffffffffffffffffffffffffff1673ffffffffffffffffffffffffffffffffffffffff16815260200190815260200160002060006101000a81548160ff0219169083151502179055508173ffffffffffffffffffffffffffffffffffffffff168373ffffffffffffffffffffffffffffffffffffffff167f17307eab39ab6107e8899845ad3d59bd9653f200f220920489ca2b5937696c318360405161134a9190611c96565b60405180910390a3505050565b60008373ffffffffffffffffffffffffffffffffffffffff163b1115611508578273ffffffffffffffffffffffffffffffffffffffff1663150b7a0261139b610eee565b8685856040518563ffffffff1660e01b81526004016113bd94939291906124c9565b6020604051808303816000875af19250505080156113f957506040513d601f19601f820116820180604052508101906113f6919061252a565b60015b61147d573d8060008114611429576040519150601f19603f3d011682016040523d82523d6000602084013e61142e565b606091505b50600081510361147557836040517f64a0ae9200000000000000000000000000000000000000000000000000000000815260040161146c9190611e07565b60405180910390fd5b805181602001fd5b63150b7a0260e01b7bffffffffffffffffffffffffffffffffffffffffffffffffffffffff1916817bffffffffffffffffffffffffffffffffffffffffffffffffffffffff19161461150657836040517f64a0ae920000000000000000000000000000000000000000000000000000000081526004016114fd9190611e07565b60405180910390fd5b505b50505050565b606060405180602001604052806000815250905090565b606060006001611534846118d5565b01905060008167ffffffffffffffff81111561155357611552611fae565b5b6040519080825280601f01601f1916602001820160405280156115855781602001600182028036833780820191505090505b509050600082602001820190505b6001156115e8578080600190039150507f3031323334353637383961626364656600000000000000000000000000000000600a86061a8153600a85816115dc576115db612557565b5b04945060008503611593575b819350505050919050565b60006002600083815260200190815260200160002060009054906101000a900473ffffffffffffffffffffffffffffffffffffffff169050919050565b61163a8383611a28565b6116476000848484611357565b505050565b80806116855750600073ffffffffffffffffffffffffffffffffffffffff168273ffffffffffffffffffffffffffffffffffffffff1614155b156117b957600061169584610d84565b9050600073ffffffffffffffffffffffffffffffffffffffff168373ffffffffffffffffffffffffffffffffffffffff161415801561170057508273ffffffffffffffffffffffffffffffffffffffff168173ffffffffffffffffffffffffffffffffffffffff1614155b801561171357506117118184610bab565b155b1561175557826040517fa9fbf51f00000000000000000000000000000000000000000000000000000000815260040161174c9190611e07565b60405180910390fd5b81156117b757838573ffffffffffffffffffffffffffffffffffffffff168273ffffffffffffffffffffffffffffffffffffffff167f8c5be1e5ebec7d5bd14f71427d1e84f3dd0314c0f7b2291e5b200ac8c7c3b92560405160405180910390a45b505b836004600085815260200190815260200160002060006101000a81548173ffffffffffffffffffffffffffffffffffffffff021916908373ffffffffffffffffffffffffffffffffffffffff16021790555050505050565b61181c838383611b21565b6118d057600073ffffffffffffffffffffffffffffffffffffffff168373ffffffffffffffffffffffffffffffffffffffff160361189157806040517f7e2732890000000000000000000000000000000000000000000000000000000081526004016118889190611eca565b60405180910390fd5b81816040517f177e802f0000000000000000000000000000000000000000000000000000000081526004016118c7929190612586565b60405180910390fd5b505050565b600080600090507a184f03e93ff9f4daa797ed6e38ed64bf6a1f0100000000000000008310611933577a184f03e93ff9f4daa797ed6e38ed64bf6a1f010000000000000000838161192957611928612557565b5b0492506040810190505b6d04ee2d6d415b85acef81000000008310611970576d04ee2d6d415b85acef8100000000838161196657611965612557565b5b0492506020810190505b662386f26fc10000831061199f57662386f26fc10000838161199557611994612557565b5b0492506010810190505b6305f5e10083106119c8576305f5e10083816119be576119bd612557565b5b0492506008810190505b61271083106119ed5761271083816119e3576119e2612557565b5b0492506004810190505b60648310611a105760648381611a0657611a05612557565b5b0492506002810190505b600a8310611a1f576001810190505b80915050919050565b600073ffffffffffffffffffffffffffffffffffffffff168273ffffffffffffffffffffffffffffffffffffffff1603611a9a5760006040517f64a0ae92000000000000000000000000000000000000000000000000000000008152600401611a919190611e07565b60405180910390fd5b6000611aa883836000610f08565b9050600073ffffffffffffffffffffffffffffffffffffffff168173ffffffffffffffffffffffffffffffffffffffff1614611b1c5760006040517f73c6ac6e000000000000000000000000000000000000000000000000000000008152600401611b139190611e07565b60405180910390fd5b505050565b60008073ffffffffffffffffffffffffffffffffffffffff168373ffffffffffffffffffffffffffffffffffffffff1614158015611bd957508273ffffffffffffffffffffffffffffffffffffffff168473ffffffffffffffffffffffffffffffffffffffff161480611b9a5750611b998484610bab565b5b80611bd857508273ffffffffffffffffffffffffffffffffffffffff16611bc083610e0c565b73ffffffffffffffffffffffffffffffffffffffff16145b5b90509392505050565b6000604051905090565b600080fd5b600080fd5b60007fffffffff0000000000000000000000000000000000000000000000000000000082169050919050565b611c2b81611bf6565b8114611c3657600080fd5b50565b600081359050611c4881611c22565b92915050565b600060208284031215611c6457611c63611bec565b5b6000611c7284828501611c39565b91505092915050565b60008115159050919050565b611c9081611c7b565b82525050565b6000602082019050611cab6000830184611c87565b92915050565b600081519050919050565b600082825260208201905092915050565b60005b83811015611ceb578082015181840152602081019050611cd0565b60008484015250505050565b6000601f19601f8301169050919050565b6000611d1382611cb1565b611d1d8185611cbc565b9350611d2d818560208601611ccd565b611d3681611cf7565b840191505092915050565b60006020820190508181036000830152611d5b8184611d08565b905092915050565b6000819050919050565b611d7681611d63565b8114611d8157600080fd5b50565b600081359050611d9381611d6d565b92915050565b600060208284031215611daf57611dae611bec565b5b6000611dbd84828501611d84565b91505092915050565b600073ffffffffffffffffffffffffffffffffffffffff82169050919050565b6000611df182611dc6565b9050919050565b611e0181611de6565b82525050565b6000602082019050611e1c6000830184611df8565b92915050565b611e2b81611de6565b8114611e3657600080fd5b50565b600081359050611e4881611e22565b92915050565b600060208284031215611e6457611e63611bec565b5b6000611e7284828501611e39565b91505092915050565b60008060408385031215611e9257611e91611bec565b5b6000611ea085828601611e39565b9250506020611eb185828601611d84565b9150509250929050565b611ec481611d63565b82525050565b6000602082019050611edf6000830184611ebb565b92915050565b600080600060608486031215611efe57611efd611bec565b5b6000611f0c86828701611e39565b9350506020611f1d86828701611e39565b9250506040611f2e86828701611d84565b9150509250925092565b611f4181611c7b565b8114611f4c57600080fd5b50565b600081359050611f5e81611f38565b92915050565b60008060408385031215611f7b57611f7a611bec565b5b6000611f8985828601611e39565b9250506020611f9a85828601611f4f565b9150509250929050565b600080fd5b600080fd5b7f4e487b7100000000000000000000000000000000000000000000000000000000600052604160045260246000fd5b611fe682611cf7565b810181811067ffffffffffffffff8211171561200557612004611fae565b5b80604052505050565b6000612018611be2565b90506120248282611fdd565b919050565b600067ffffffffffffffff82111561204457612043611fae565b5b61204d82611cf7565b9050602081019050919050565b82818337600083830152505050565b600061207c61207784612029565b61200e565b90508281526020810184848401111561209857612097611fa9565b5b6120a384828561205a565b509392505050565b600082601f8301126120c0576120bf611fa4565b5b81356120d0848260208601612069565b91505092915050565b600080600080608085870312156120f3576120f2611bec565b5b600061210187828801611e39565b945050602061211287828801611e39565b935050604061212387828801611d84565b925050606085013567ffffffffffffffff81111561214457612143611bf1565b5b612150878288016120ab565b91505092959194509250565b6000806040838503121561217357612172611bec565b5b600061218185828601611e39565b925050602061219285828601611e39565b9150509250929050565b7f4e487b7100000000000000000000000000000000000000000000000000000000600052602260045260246000fd5b600060028204905060018216806121e357607f821691505b6020821081036121f6576121f561219c565b5b50919050565b7f416c6c20617661696c61626c65207469636b6574732068617665206265656e2060008201527f6d696e7465640000000000000000000000000000000000000000000000000000602082015250565b6000612258602683611cbc565b9150612263826121fc565b604082019050919050565b600060208201905081810360008301526122878161224b565b9050919050565b7f4e487b7100000000000000000000000000000000000000000000000000000000600052601160045260246000fd5b60006122c882611d63565b91507fffffffffffffffffffffffffffffffffffffffffffffffffffffffffffffffff82036122fa576122f961228e565b5b600182019050919050565b7f43616e6e6f7420657863656564207374616469756d2063617061636974790000600082015250565b600061233b601e83611cbc565b915061234682612305565b602082019050919050565b6000602082019050818103600083015261236a8161232e565b9050919050565b60006060820190506123866000830186611df8565b6123936020830185611ebb565b6123a06040830184611df8565b949350505050565b600081905092915050565b60006123be82611cb1565b6123c881856123a8565b93506123d8818560208601611ccd565b80840191505092915050565b60006123f082856123b3565b91506123fc82846123b3565b91508190509392505050565b7f496e636f727265637420616d6f756e742073656e740000000000000000000000600082015250565b600061243e601583611cbc565b915061244982612408565b602082019050919050565b6000602082019050818103600083015261246d81612431565b9050919050565b600081519050919050565b600082825260208201905092915050565b600061249b82612474565b6124a5818561247f565b93506124b5818560208601611ccd565b6124be81611cf7565b840191505092915050565b60006080820190506124de6000830187611df8565b6124eb6020830186611df8565b6124f86040830185611ebb565b818103606083015261250a8184612490565b905095945050505050565b60008151905061252481611c22565b92915050565b6000602082840312156125405761253f611bec565b5b600061254e84828501612515565b91505092915050565b7f4e487b7100000000000000000000000000000000000000000000000000000000600052601260045260246000fd5b600060408201905061259b6000830185611df8565b6125a86020830184611ebb565b939250505056fea2646970667358221220ba805b9cf449aa5c94ddac3cf85335184eff76835203bb615b46611c0749a9ed64736f6c63430008180033",
  "linkReferences": {},
  "deployedLinkReferences": {}
}